{
  "contractName": "LiliansList",
  "abi": [
    {
      "inputs": [
        {
          "internalType": "string[]",
          "name": "toDoItems",
          "type": "string[]"
        }
      ],
      "stateMutability": "nonpayable",
      "type": "constructor"
    },
    {
      "anonymous": false,
      "inputs": [
        {
          "indexed": true,
          "internalType": "address",
          "name": "owner",
          "type": "address"
        },
        {
          "indexed": true,
          "internalType": "address",
          "name": "approved",
          "type": "address"
        },
        {
          "indexed": true,
          "internalType": "uint256",
          "name": "tokenId",
          "type": "uint256"
        }
      ],
      "name": "Approval",
      "type": "event"
    },
    {
      "anonymous": false,
      "inputs": [
        {
          "indexed": true,
          "internalType": "address",
          "name": "owner",
          "type": "address"
        },
        {
          "indexed": true,
          "internalType": "address",
          "name": "operator",
          "type": "address"
        },
        {
          "indexed": false,
          "internalType": "bool",
          "name": "approved",
          "type": "bool"
        }
      ],
      "name": "ApprovalForAll",
      "type": "event"
    },
    {
      "anonymous": false,
      "inputs": [
        {
          "indexed": true,
          "internalType": "address",
          "name": "from",
          "type": "address"
        },
        {
          "indexed": true,
          "internalType": "address",
          "name": "to",
          "type": "address"
        },
        {
          "indexed": true,
          "internalType": "uint256",
          "name": "tokenId",
          "type": "uint256"
        }
      ],
      "name": "Transfer",
      "type": "event"
    },
    {
      "inputs": [
        {
          "internalType": "address",
          "name": "to",
          "type": "address"
        },
        {
          "internalType": "uint256",
          "name": "tokenId",
          "type": "uint256"
        }
      ],
      "name": "approve",
      "outputs": [],
      "stateMutability": "nonpayable",
      "type": "function"
    },
    {
      "inputs": [
        {
          "internalType": "address",
          "name": "owner",
          "type": "address"
        }
      ],
      "name": "balanceOf",
      "outputs": [
        {
          "internalType": "uint256",
          "name": "",
          "type": "uint256"
        }
      ],
      "stateMutability": "view",
      "type": "function",
      "constant": true
    },
    {
      "inputs": [
        {
          "internalType": "uint256",
          "name": "tokenId",
          "type": "uint256"
        }
      ],
      "name": "getApproved",
      "outputs": [
        {
          "internalType": "address",
          "name": "",
          "type": "address"
        }
      ],
      "stateMutability": "view",
      "type": "function",
      "constant": true
    },
    {
      "inputs": [
        {
          "internalType": "address",
          "name": "owner",
          "type": "address"
        },
        {
          "internalType": "address",
          "name": "operator",
          "type": "address"
        }
      ],
      "name": "isApprovedForAll",
      "outputs": [
        {
          "internalType": "bool",
          "name": "",
          "type": "bool"
        }
      ],
      "stateMutability": "view",
      "type": "function",
      "constant": true
    },
    {
      "inputs": [],
      "name": "length",
      "outputs": [
        {
          "internalType": "uint256",
          "name": "",
          "type": "uint256"
        }
      ],
      "stateMutability": "view",
      "type": "function",
      "constant": true
    },
    {
      "inputs": [
        {
          "internalType": "string",
          "name": "",
          "type": "string"
        }
      ],
      "name": "liliansVeryPublicWeb3ToDoList",
      "outputs": [
        {
          "internalType": "bool",
          "name": "",
          "type": "bool"
        }
      ],
      "stateMutability": "view",
      "type": "function",
      "constant": true
    },
    {
      "inputs": [],
      "name": "name",
      "outputs": [
        {
          "internalType": "string",
          "name": "",
          "type": "string"
        }
      ],
      "stateMutability": "view",
      "type": "function",
      "constant": true
    },
    {
      "inputs": [],
      "name": "owner",
      "outputs": [
        {
          "internalType": "address",
          "name": "",
          "type": "address"
        }
      ],
      "stateMutability": "view",
      "type": "function",
      "constant": true
    },
    {
      "inputs": [
        {
          "internalType": "uint256",
          "name": "tokenId",
          "type": "uint256"
        }
      ],
      "name": "ownerOf",
      "outputs": [
        {
          "internalType": "address",
          "name": "",
          "type": "address"
        }
      ],
      "stateMutability": "view",
      "type": "function",
      "constant": true
    },
    {
      "inputs": [
        {
          "internalType": "address",
          "name": "from",
          "type": "address"
        },
        {
          "internalType": "address",
          "name": "to",
          "type": "address"
        },
        {
          "internalType": "uint256",
          "name": "tokenId",
          "type": "uint256"
        }
      ],
      "name": "safeTransferFrom",
      "outputs": [],
      "stateMutability": "nonpayable",
      "type": "function"
    },
    {
      "inputs": [
        {
          "internalType": "address",
          "name": "from",
          "type": "address"
        },
        {
          "internalType": "address",
          "name": "to",
          "type": "address"
        },
        {
          "internalType": "uint256",
          "name": "tokenId",
          "type": "uint256"
        },
        {
          "internalType": "bytes",
          "name": "_data",
          "type": "bytes"
        }
      ],
      "name": "safeTransferFrom",
      "outputs": [],
      "stateMutability": "nonpayable",
      "type": "function"
    },
    {
      "inputs": [
        {
          "internalType": "address",
          "name": "operator",
          "type": "address"
        },
        {
          "internalType": "bool",
          "name": "approved",
          "type": "bool"
        }
      ],
      "name": "setApprovalForAll",
      "outputs": [],
      "stateMutability": "nonpayable",
      "type": "function"
    },
    {
      "inputs": [
        {
          "internalType": "bytes4",
          "name": "interfaceId",
          "type": "bytes4"
        }
      ],
      "name": "supportsInterface",
      "outputs": [
        {
          "internalType": "bool",
          "name": "",
          "type": "bool"
        }
      ],
      "stateMutability": "view",
      "type": "function",
      "constant": true
    },
    {
      "inputs": [],
      "name": "symbol",
      "outputs": [
        {
          "internalType": "string",
          "name": "",
          "type": "string"
        }
      ],
      "stateMutability": "view",
      "type": "function",
      "constant": true
    },
    {
      "inputs": [
        {
          "internalType": "uint256",
          "name": "",
          "type": "uint256"
        }
      ],
      "name": "taskNames",
      "outputs": [
        {
          "internalType": "string",
          "name": "",
          "type": "string"
        }
      ],
      "stateMutability": "view",
      "type": "function",
      "constant": true
    },
    {
      "inputs": [
        {
          "internalType": "uint256",
          "name": "tokenId",
          "type": "uint256"
        }
      ],
      "name": "tokenURI",
      "outputs": [
        {
          "internalType": "string",
          "name": "",
          "type": "string"
        }
      ],
      "stateMutability": "view",
      "type": "function",
      "constant": true
    },
    {
      "inputs": [
        {
          "internalType": "address",
          "name": "from",
          "type": "address"
        },
        {
          "internalType": "address",
          "name": "to",
          "type": "address"
        },
        {
          "internalType": "uint256",
          "name": "tokenId",
          "type": "uint256"
        }
      ],
      "name": "transferFrom",
      "outputs": [],
      "stateMutability": "nonpayable",
      "type": "function"
    },
    {
      "inputs": [
        {
          "internalType": "string",
          "name": "name",
          "type": "string"
        }
      ],
      "name": "setToDone",
      "outputs": [],
      "stateMutability": "nonpayable",
      "type": "function"
    },
    {
      "inputs": [
        {
          "internalType": "string",
          "name": "name",
          "type": "string"
        }
      ],
      "name": "setUndone",
      "outputs": [],
      "stateMutability": "nonpayable",
      "type": "function"
    },
    {
      "inputs": [
        {
          "internalType": "string",
          "name": "name",
          "type": "string"
        }
      ],
      "name": "getIsDone",
      "outputs": [
        {
          "internalType": "bool",
          "name": "",
          "type": "bool"
        }
      ],
      "stateMutability": "view",
      "type": "function",
      "constant": true
    },
    {
      "inputs": [
        {
          "internalType": "string",
          "name": "name",
          "type": "string"
        }
      ],
      "name": "addToList",
      "outputs": [],
      "stateMutability": "nonpayable",
      "type": "function"
    },
    {
      "inputs": [],
      "name": "getLength",
      "outputs": [
        {
          "internalType": "uint256",
          "name": "",
          "type": "uint256"
        }
      ],
      "stateMutability": "view",
      "type": "function",
      "constant": true
    },
    {
      "inputs": [
        {
          "internalType": "uint256",
          "name": "taskId",
          "type": "uint256"
        }
      ],
      "name": "getTask",
      "outputs": [
        {
          "internalType": "string",
          "name": "",
          "type": "string"
        },
        {
          "internalType": "bool",
          "name": "",
          "type": "bool"
        }
      ],
      "stateMutability": "view",
      "type": "function",
      "constant": true
    }
  ],
  "bytecode": "0x60806040523480156200001157600080fd5b50604051620031b5380380620031b58339818101604052810190620000379190620003b8565b6040518060400160405280600b81526020017f4c696c69616e734c6973740000000000000000000000000000000000000000008152506040518060400160405280600381526020017f4c4c4c00000000000000000000000000000000000000000000000000000000008152508160009080519060200190620000bb929190620001bb565b508060019080519060200190620000d4929190620001bb565b50505060005b8151811015620001ab5760006009838381518110620000fe57620000fd62000655565b5b602002602001015160405162000115919062000440565b908152602001604051809103902060006101000a81548160ff021916908315150217905550600882828151811062000152576200015162000655565b5b602002602001015190806001815401808255809150506001900390600052602060002001600090919091909150908051906020019062000194929190620001bb565b508080620001a290620005a9565b915050620000da565b81516007819055505050620006dd565b828054620001c9906200053d565b90600052602060002090601f016020900481019282620001ed576000855562000239565b82601f106200020857805160ff191683800117855562000239565b8280016001018555821562000239579182015b82811115620002385782518255916020019190600101906200021b565b5b5090506200024891906200024c565b5090565b5b80821115620002675760008160009055506001016200024d565b5090565b6000620002826200027c8462000482565b62000459565b90508083825260208201905082856020860282011115620002a857620002a7620006b8565b5b60005b85811015620002fd57815167ffffffffffffffff811115620002d257620002d1620006b3565b5b808601620002e1898262000385565b85526020850194506020840193505050600181019050620002ab565b5050509392505050565b60006200031e6200031884620004b1565b62000459565b9050828152602081018484840111156200033d576200033c620006bd565b5b6200034a84828562000507565b509392505050565b600082601f8301126200036a5762000369620006b3565b5b81516200037c8482602086016200026b565b91505092915050565b600082601f8301126200039d576200039c620006b3565b5b8151620003af84826020860162000307565b91505092915050565b600060208284031215620003d157620003d0620006c7565b5b600082015167ffffffffffffffff811115620003f257620003f1620006c2565b5b620004008482850162000352565b91505092915050565b60006200041682620004e7565b620004228185620004f2565b93506200043481856020860162000507565b80840191505092915050565b60006200044e828462000409565b915081905092915050565b60006200046562000478565b905062000473828262000573565b919050565b6000604051905090565b600067ffffffffffffffff821115620004a0576200049f62000684565b5b602082029050602081019050919050565b600067ffffffffffffffff821115620004cf57620004ce62000684565b5b620004da82620006cc565b9050602081019050919050565b600081519050919050565b600081905092915050565b6000819050919050565b60005b83811015620005275780820151818401526020810190506200050a565b8381111562000537576000848401525b50505050565b600060028204905060018216806200055657607f821691505b602082108114156200056d576200056c62000626565b5b50919050565b6200057e82620006cc565b810181811067ffffffffffffffff82111715620005a0576200059f62000684565b5b80604052505050565b6000620005b682620004fd565b91507fffffffffffffffffffffffffffffffffffffffffffffffffffffffffffffffff821415620005ec57620005eb620005f7565b5b600182019050919050565b7f4e487b7100000000000000000000000000000000000000000000000000000000600052601160045260246000fd5b7f4e487b7100000000000000000000000000000000000000000000000000000000600052602260045260246000fd5b7f4e487b7100000000000000000000000000000000000000000000000000000000600052603260045260246000fd5b7f4e487b7100000000000000000000000000000000000000000000000000000000600052604160045260246000fd5b600080fd5b600080fd5b600080fd5b600080fd5b600080fd5b6000601f19601f8301169050919050565b612ac880620006ed6000396000f3fe608060405234801561001057600080fd5b506004361061014d5760003560e01c806376da0f3e116100c3578063a22cb4651161007c578063a22cb465146103d7578063b88d4fde146103f3578063be1c766b1461040f578063c87b56dd1461042d578063cb84b6f81461045d578063e985e9c5146104795761014d565b806376da0f3e146103035780637b47fad81461031f578063844de2611461034f5780638c6074a51461037f5780638da5cb5b1461039b57806395d89b41146103b95761014d565b80631f7b6d32116101155780631f7b6d321461021d57806323b872dd1461023b57806335ecfa991461025757806342842e0e146102875780636352211e146102a357806370a08231146102d35761014d565b806301ffc9a71461015257806306fdde0314610182578063081812fc146101a0578063095ea7b3146101d05780631d65e77e146101ec575b600080fd5b61016c60048036038101906101679190611c92565b6104a9565b6040516101799190612078565b60405180910390f35b61018a61058b565b6040516101979190612093565b60405180910390f35b6101ba60048036038101906101b59190611d35565b61061d565b6040516101c79190612011565b60405180910390f35b6101ea60048036038101906101e59190611c52565b6106a2565b005b61020660048036038101906102019190611d35565b6107ba565b6040516102149291906120b5565b60405180910390f35b610225610882565b6040516102329190612265565b60405180910390f35b61025560048036038101906102509190611b3c565b610888565b005b610271600480360381019061026c9190611cec565b6108e8565b60405161027e9190612078565b60405180910390f35b6102a1600480360381019061029c9190611b3c565b61091e565b005b6102bd60048036038101906102b89190611d35565b61093e565b6040516102ca9190612011565b60405180910390f35b6102ed60048036038101906102e89190611acf565b6109f0565b6040516102fa9190612265565b60405180910390f35b61031d60048036038101906103189190611cec565b610aa8565b005b61033960048036038101906103349190611d35565b610b38565b6040516103469190612093565b60405180910390f35b61036960048036038101906103649190611cec565b610be4565b6040516103769190612078565b60405180910390f35b61039960048036038101906103949190611cec565b610c19565b005b6103a3610c53565b6040516103b09190612011565b60405180910390f35b6103c1610c79565b6040516103ce9190612093565b60405180910390f35b6103f160048036038101906103ec9190611c12565b610d0b565b005b61040d60048036038101906104089190611b8f565b610d21565b005b610417610d83565b6040516104249190612265565b60405180910390f35b61044760048036038101906104429190611d35565b610d8d565b6040516104549190612093565b60405180910390f35b61047760048036038101906104729190611cec565b610e34565b005b610493600480360381019061048e9190611afc565b610e6e565b6040516104a09190612078565b60405180910390f35b60007f80ac58cd000000000000000000000000000000000000000000000000000000007bffffffffffffffffffffffffffffffffffffffffffffffffffffffff1916827bffffffffffffffffffffffffffffffffffffffffffffffffffffffff1916148061057457507f5b5e139f000000000000000000000000000000000000000000000000000000007bffffffffffffffffffffffffffffffffffffffffffffffffffffffff1916827bffffffffffffffffffffffffffffffffffffffffffffffffffffffff1916145b80610584575061058382610f02565b5b9050919050565b60606000805461059a906124bb565b80601f01602080910402602001604051908101604052809291908181526020018280546105c6906124bb565b80156106135780601f106105e857610100808354040283529160200191610613565b820191906000526020600020905b8154815290600101906020018083116105f657829003601f168201915b5050505050905090565b600061062882610f6c565b610667576040517f08c379a000000000000000000000000000000000000000000000000000000000815260040161065e906121e5565b60405180910390fd5b6004600083815260200190815260200160002060009054906101000a900473ffffffffffffffffffffffffffffffffffffffff169050919050565b60006106ad8261093e565b90508073ffffffffffffffffffffffffffffffffffffffff168373ffffffffffffffffffffffffffffffffffffffff16141561071e576040517f08c379a000000000000000000000000000000000000000000000000000000000815260040161071590612225565b60405180910390fd5b8073ffffffffffffffffffffffffffffffffffffffff1661073d610fd8565b73ffffffffffffffffffffffffffffffffffffffff16148061076c575061076b81610766610fd8565b610e6e565b5b6107ab576040517f08c379a00000000000000000000000000000000000000000000000000000000081526004016107a290612185565b60405180910390fd5b6107b58383610fe0565b505050565b6060600080600884815481106107d3576107d2612625565b5b9060005260206000200180546107e8906124bb565b80601f0160208091040260200160405190810160405280929190818152602001828054610814906124bb565b80156108615780601f1061083657610100808354040283529160200191610861565b820191906000526020600020905b81548152906001019060200180831161084457829003601f168201915b50505050509050600061087382610be4565b90508181935093505050915091565b60075481565b610899610893610fd8565b82611099565b6108d8576040517f08c379a00000000000000000000000000000000000000000000000000000000081526004016108cf90612245565b60405180910390fd5b6108e3838383611177565b505050565b6009818051602081018201805184825260208301602085012081835280955050505050506000915054906101000a900460ff1681565b61093983838360405180602001604052806000815250610d21565b505050565b6000806002600084815260200190815260200160002060009054906101000a900473ffffffffffffffffffffffffffffffffffffffff169050600073ffffffffffffffffffffffffffffffffffffffff168173ffffffffffffffffffffffffffffffffffffffff1614156109e7576040517f08c379a00000000000000000000000000000000000000000000000000000000081526004016109de906121c5565b60405180910390fd5b80915050919050565b60008073ffffffffffffffffffffffffffffffffffffffff168273ffffffffffffffffffffffffffffffffffffffff161415610a61576040517f08c379a0000000000000000000000000000000000000000000000000000000008152600401610a58906121a5565b60405180910390fd5b600360008373ffffffffffffffffffffffffffffffffffffffff1673ffffffffffffffffffffffffffffffffffffffff168152602001908152602001600020549050919050565b6000600982604051610aba9190611fd6565b908152602001604051809103902060006101000a81548160ff021916908315150217905550600881908060018154018082558091505060019003906000526020600020016000909190919091509080519060200190610b1a9291906118e3565b50600160076000828254610b2e919061234a565b9250508190555050565b60088181548110610b4857600080fd5b906000526020600020016000915090508054610b63906124bb565b80601f0160208091040260200160405190810160405280929190818152602001828054610b8f906124bb565b8015610bdc5780601f10610bb157610100808354040283529160200191610bdc565b820191906000526020600020905b815481529060010190602001808311610bbf57829003601f168201915b505050505081565b6000600982604051610bf69190611fd6565b908152602001604051809103902060009054906101000a900460ff169050919050565b6000600982604051610c2b9190611fd6565b908152602001604051809103902060006101000a81548160ff02191690831515021790555050565b600660009054906101000a900473ffffffffffffffffffffffffffffffffffffffff1681565b606060018054610c88906124bb565b80601f0160208091040260200160405190810160405280929190818152602001828054610cb4906124bb565b8015610d015780601f10610cd657610100808354040283529160200191610d01565b820191906000526020600020905b815481529060010190602001808311610ce457829003601f168201915b5050505050905090565b610d1d610d16610fd8565b83836113de565b5050565b610d32610d2c610fd8565b83611099565b610d71576040517f08c379a0000000000000000000000000000000000000000000000000000000008152600401610d6890612245565b60405180910390fd5b610d7d8484848461154b565b50505050565b6000600754905090565b6060610d9882610f6c565b610dd7576040517f08c379a0000000000000000000000000000000000000000000000000000000008152600401610dce90612205565b60405180910390fd5b6000610de16115a7565b90506000815111610e015760405180602001604052806000815250610e2c565b80610e0b846115be565b604051602001610e1c929190611fed565b6040516020818303038152906040525b915050919050565b6001600982604051610e469190611fd6565b908152602001604051809103902060006101000a81548160ff02191690831515021790555050565b6000600560008473ffffffffffffffffffffffffffffffffffffffff1673ffffffffffffffffffffffffffffffffffffffff16815260200190815260200160002060008373ffffffffffffffffffffffffffffffffffffffff1673ffffffffffffffffffffffffffffffffffffffff16815260200190815260200160002060009054906101000a900460ff16905092915050565b60007f01ffc9a7000000000000000000000000000000000000000000000000000000007bffffffffffffffffffffffffffffffffffffffffffffffffffffffff1916827bffffffffffffffffffffffffffffffffffffffffffffffffffffffff1916149050919050565b60008073ffffffffffffffffffffffffffffffffffffffff166002600084815260200190815260200160002060009054906101000a900473ffffffffffffffffffffffffffffffffffffffff1673ffffffffffffffffffffffffffffffffffffffff1614159050919050565b600033905090565b816004600083815260200190815260200160002060006101000a81548173ffffffffffffffffffffffffffffffffffffffff021916908373ffffffffffffffffffffffffffffffffffffffff160217905550808273ffffffffffffffffffffffffffffffffffffffff166110538361093e565b73ffffffffffffffffffffffffffffffffffffffff167f8c5be1e5ebec7d5bd14f71427d1e84f3dd0314c0f7b2291e5b200ac8c7c3b92560405160405180910390a45050565b60006110a482610f6c565b6110e3576040517f08c379a00000000000000000000000000000000000000000000000000000000081526004016110da90612165565b60405180910390fd5b60006110ee8361093e565b90508073ffffffffffffffffffffffffffffffffffffffff168473ffffffffffffffffffffffffffffffffffffffff16148061115d57508373ffffffffffffffffffffffffffffffffffffffff166111458461061d565b73ffffffffffffffffffffffffffffffffffffffff16145b8061116e575061116d8185610e6e565b5b91505092915050565b8273ffffffffffffffffffffffffffffffffffffffff166111978261093e565b73ffffffffffffffffffffffffffffffffffffffff16146111ed576040517f08c379a00000000000000000000000000000000000000000000000000000000081526004016111e490612105565b60405180910390fd5b600073ffffffffffffffffffffffffffffffffffffffff168273ffffffffffffffffffffffffffffffffffffffff16141561125d576040517f08c379a000000000000000000000000000000000000000000000000000000000815260040161125490612125565b60405180910390fd5b61126883838361171f565b611273600082610fe0565b6001600360008573ffffffffffffffffffffffffffffffffffffffff1673ffffffffffffffffffffffffffffffffffffffff16815260200190815260200160002060008282546112c391906123d1565b925050819055506001600360008473ffffffffffffffffffffffffffffffffffffffff1673ffffffffffffffffffffffffffffffffffffffff168152602001908152602001600020600082825461131a919061234a565b92505081905550816002600083815260200190815260200160002060006101000a81548173ffffffffffffffffffffffffffffffffffffffff021916908373ffffffffffffffffffffffffffffffffffffffff160217905550808273ffffffffffffffffffffffffffffffffffffffff168473ffffffffffffffffffffffffffffffffffffffff167fddf252ad1be2c89b69c2b068fc378daa952ba7f163c4a11628f55a4df523b3ef60405160405180910390a46113d9838383611724565b505050565b8173ffffffffffffffffffffffffffffffffffffffff168373ffffffffffffffffffffffffffffffffffffffff16141561144d576040517f08c379a000000000000000000000000000000000000000000000000000000000815260040161144490612145565b60405180910390fd5b80600560008573ffffffffffffffffffffffffffffffffffffffff1673ffffffffffffffffffffffffffffffffffffffff16815260200190815260200160002060008473ffffffffffffffffffffffffffffffffffffffff1673ffffffffffffffffffffffffffffffffffffffff16815260200190815260200160002060006101000a81548160ff0219169083151502179055508173ffffffffffffffffffffffffffffffffffffffff168373ffffffffffffffffffffffffffffffffffffffff167f17307eab39ab6107e8899845ad3d59bd9653f200f220920489ca2b5937696c318360405161153e9190612078565b60405180910390a3505050565b611556848484611177565b61156284848484611729565b6115a1576040517f08c379a0000000000000000000000000000000000000000000000000000000008152600401611598906120e5565b60405180910390fd5b50505050565b606060405180602001604052806000815250905090565b60606000821415611606576040518060400160405280600181526020017f3000000000000000000000000000000000000000000000000000000000000000815250905061171a565b600082905060005b600082146116385780806116219061251e565b915050600a8261163191906123a0565b915061160e565b60008167ffffffffffffffff81111561165457611653612654565b5b6040519080825280601f01601f1916602001820160405280156116865781602001600182028036833780820191505090505b5090505b600085146117135760018261169f91906123d1565b9150600a856116ae9190612567565b60306116ba919061234a565b60f81b8183815181106116d0576116cf612625565b5b60200101907effffffffffffffffffffffffffffffffffffffffffffffffffffffffffffff1916908160001a905350600a8561170c91906123a0565b945061168a565b8093505050505b919050565b505050565b505050565b600061174a8473ffffffffffffffffffffffffffffffffffffffff166118c0565b156118b3578373ffffffffffffffffffffffffffffffffffffffff1663150b7a02611773610fd8565b8786866040518563ffffffff1660e01b8152600401611795949392919061202c565b602060405180830381600087803b1580156117af57600080fd5b505af19250505080156117e057506040513d601f19601f820116820180604052508101906117dd9190611cbf565b60015b611863573d8060008114611810576040519150601f19603f3d011682016040523d82523d6000602084013e611815565b606091505b5060008151141561185b576040517f08c379a0000000000000000000000000000000000000000000000000000000008152600401611852906120e5565b60405180910390fd5b805181602001fd5b63150b7a0260e01b7bffffffffffffffffffffffffffffffffffffffffffffffffffffffff1916817bffffffffffffffffffffffffffffffffffffffffffffffffffffffff1916149150506118b8565b600190505b949350505050565b6000808273ffffffffffffffffffffffffffffffffffffffff163b119050919050565b8280546118ef906124bb565b90600052602060002090601f0160209004810192826119115760008555611958565b82601f1061192a57805160ff1916838001178555611958565b82800160010185558215611958579182015b8281111561195757825182559160200191906001019061193c565b5b5090506119659190611969565b5090565b5b8082111561198257600081600090555060010161196a565b5090565b6000611999611994846122a5565b612280565b9050828152602081018484840111156119b5576119b4612688565b5b6119c0848285612479565b509392505050565b60006119db6119d6846122d6565b612280565b9050828152602081018484840111156119f7576119f6612688565b5b611a02848285612479565b509392505050565b600081359050611a1981612a36565b92915050565b600081359050611a2e81612a4d565b92915050565b600081359050611a4381612a64565b92915050565b600081519050611a5881612a64565b92915050565b600082601f830112611a7357611a72612683565b5b8135611a83848260208601611986565b91505092915050565b600082601f830112611aa157611aa0612683565b5b8135611ab18482602086016119c8565b91505092915050565b600081359050611ac981612a7b565b92915050565b600060208284031215611ae557611ae4612692565b5b6000611af384828501611a0a565b91505092915050565b60008060408385031215611b1357611b12612692565b5b6000611b2185828601611a0a565b9250506020611b3285828601611a0a565b9150509250929050565b600080600060608486031215611b5557611b54612692565b5b6000611b6386828701611a0a565b9350506020611b7486828701611a0a565b9250506040611b8586828701611aba565b9150509250925092565b60008060008060808587031215611ba957611ba8612692565b5b6000611bb787828801611a0a565b9450506020611bc887828801611a0a565b9350506040611bd987828801611aba565b925050606085013567ffffffffffffffff811115611bfa57611bf961268d565b5b611c0687828801611a5e565b91505092959194509250565b60008060408385031215611c2957611c28612692565b5b6000611c3785828601611a0a565b9250506020611c4885828601611a1f565b9150509250929050565b60008060408385031215611c6957611c68612692565b5b6000611c7785828601611a0a565b9250506020611c8885828601611aba565b9150509250929050565b600060208284031215611ca857611ca7612692565b5b6000611cb684828501611a34565b91505092915050565b600060208284031215611cd557611cd4612692565b5b6000611ce384828501611a49565b91505092915050565b600060208284031215611d0257611d01612692565b5b600082013567ffffffffffffffff811115611d2057611d1f61268d565b5b611d2c84828501611a8c565b91505092915050565b600060208284031215611d4b57611d4a612692565b5b6000611d5984828501611aba565b91505092915050565b611d6b81612405565b82525050565b611d7a81612417565b82525050565b6000611d8b82612307565b611d95818561231d565b9350611da5818560208601612488565b611dae81612697565b840191505092915050565b6000611dc482612312565b611dce818561232e565b9350611dde818560208601612488565b611de781612697565b840191505092915050565b6000611dfd82612312565b611e07818561233f565b9350611e17818560208601612488565b80840191505092915050565b6000611e3060328361232e565b9150611e3b826126a8565b604082019050919050565b6000611e5360258361232e565b9150611e5e826126f7565b604082019050919050565b6000611e7660248361232e565b9150611e8182612746565b604082019050919050565b6000611e9960198361232e565b9150611ea482612795565b602082019050919050565b6000611ebc602c8361232e565b9150611ec7826127be565b604082019050919050565b6000611edf60388361232e565b9150611eea8261280d565b604082019050919050565b6000611f02602a8361232e565b9150611f0d8261285c565b604082019050919050565b6000611f2560298361232e565b9150611f30826128ab565b604082019050919050565b6000611f48602c8361232e565b9150611f53826128fa565b604082019050919050565b6000611f6b602f8361232e565b9150611f7682612949565b604082019050919050565b6000611f8e60218361232e565b9150611f9982612998565b604082019050919050565b6000611fb160318361232e565b9150611fbc826129e7565b604082019050919050565b611fd08161246f565b82525050565b6000611fe28284611df2565b915081905092915050565b6000611ff98285611df2565b91506120058284611df2565b91508190509392505050565b60006020820190506120266000830184611d62565b92915050565b60006080820190506120416000830187611d62565b61204e6020830186611d62565b61205b6040830185611fc7565b818103606083015261206d8184611d80565b905095945050505050565b600060208201905061208d6000830184611d71565b92915050565b600060208201905081810360008301526120ad8184611db9565b905092915050565b600060408201905081810360008301526120cf8185611db9565b90506120de6020830184611d71565b9392505050565b600060208201905081810360008301526120fe81611e23565b9050919050565b6000602082019050818103600083015261211e81611e46565b9050919050565b6000602082019050818103600083015261213e81611e69565b9050919050565b6000602082019050818103600083015261215e81611e8c565b9050919050565b6000602082019050818103600083015261217e81611eaf565b9050919050565b6000602082019050818103600083015261219e81611ed2565b9050919050565b600060208201905081810360008301526121be81611ef5565b9050919050565b600060208201905081810360008301526121de81611f18565b9050919050565b600060208201905081810360008301526121fe81611f3b565b9050919050565b6000602082019050818103600083015261221e81611f5e565b9050919050565b6000602082019050818103600083015261223e81611f81565b9050919050565b6000602082019050818103600083015261225e81611fa4565b9050919050565b600060208201905061227a6000830184611fc7565b92915050565b600061228a61229b565b905061229682826124ed565b919050565b6000604051905090565b600067ffffffffffffffff8211156122c0576122bf612654565b5b6122c982612697565b9050602081019050919050565b600067ffffffffffffffff8211156122f1576122f0612654565b5b6122fa82612697565b9050602081019050919050565b600081519050919050565b600081519050919050565b600082825260208201905092915050565b600082825260208201905092915050565b600081905092915050565b60006123558261246f565b91506123608361246f565b9250827fffffffffffffffffffffffffffffffffffffffffffffffffffffffffffffffff0382111561239557612394612598565b5b828201905092915050565b60006123ab8261246f565b91506123b68361246f565b9250826123c6576123c56125c7565b5b828204905092915050565b60006123dc8261246f565b91506123e78361246f565b9250828210156123fa576123f9612598565b5b828203905092915050565b60006124108261244f565b9050919050565b60008115159050919050565b60007fffffffff0000000000000000000000000000000000000000000000000000000082169050919050565b600073ffffffffffffffffffffffffffffffffffffffff82169050919050565b6000819050919050565b82818337600083830152505050565b60005b838110156124a657808201518184015260208101905061248b565b838111156124b5576000848401525b50505050565b600060028204905060018216806124d357607f821691505b602082108114156124e7576124e66125f6565b5b50919050565b6124f682612697565b810181811067ffffffffffffffff8211171561251557612514612654565b5b80604052505050565b60006125298261246f565b91507fffffffffffffffffffffffffffffffffffffffffffffffffffffffffffffffff82141561255c5761255b612598565b5b600182019050919050565b60006125728261246f565b915061257d8361246f565b92508261258d5761258c6125c7565b5b828206905092915050565b7f4e487b7100000000000000000000000000000000000000000000000000000000600052601160045260246000fd5b7f4e487b7100000000000000000000000000000000000000000000000000000000600052601260045260246000fd5b7f4e487b7100000000000000000000000000000000000000000000000000000000600052602260045260246000fd5b7f4e487b7100000000000000000000000000000000000000000000000000000000600052603260045260246000fd5b7f4e487b7100000000000000000000000000000000000000000000000000000000600052604160045260246000fd5b600080fd5b600080fd5b600080fd5b600080fd5b6000601f19601f8301169050919050565b7f4552433732313a207472616e7366657220746f206e6f6e20455243373231526560008201527f63656976657220696d706c656d656e7465720000000000000000000000000000602082015250565b7f4552433732313a207472616e736665722066726f6d20696e636f72726563742060008201527f6f776e6572000000000000000000000000000000000000000000000000000000602082015250565b7f4552433732313a207472616e7366657220746f20746865207a65726f2061646460008201527f7265737300000000000000000000000000000000000000000000000000000000602082015250565b7f4552433732313a20617070726f766520746f2063616c6c657200000000000000600082015250565b7f4552433732313a206f70657261746f7220717565727920666f72206e6f6e657860008201527f697374656e7420746f6b656e0000000000000000000000000000000000000000602082015250565b7f4552433732313a20617070726f76652063616c6c6572206973206e6f74206f7760008201527f6e6572206e6f7220617070726f76656420666f7220616c6c0000000000000000602082015250565b7f4552433732313a2062616c616e636520717565727920666f7220746865207a6560008201527f726f206164647265737300000000000000000000000000000000000000000000602082015250565b7f4552433732313a206f776e657220717565727920666f72206e6f6e657869737460008201527f656e7420746f6b656e0000000000000000000000000000000000000000000000602082015250565b7f4552433732313a20617070726f76656420717565727920666f72206e6f6e657860008201527f697374656e7420746f6b656e0000000000000000000000000000000000000000602082015250565b7f4552433732314d657461646174613a2055524920717565727920666f72206e6f60008201527f6e6578697374656e7420746f6b656e0000000000000000000000000000000000602082015250565b7f4552433732313a20617070726f76616c20746f2063757272656e74206f776e6560008201527f7200000000000000000000000000000000000000000000000000000000000000602082015250565b7f4552433732313a207472616e736665722063616c6c6572206973206e6f74206f60008201527f776e6572206e6f7220617070726f766564000000000000000000000000000000602082015250565b612a3f81612405565b8114612a4a57600080fd5b50565b612a5681612417565b8114612a6157600080fd5b50565b612a6d81612423565b8114612a7857600080fd5b50565b612a848161246f565b8114612a8f57600080fd5b5056fea2646970667358221220999c26f3d37bed73e5b2177dfa0831a8db8a7ebc2560056a3ae66a067285c1a264736f6c63430008070033",
  "immutableReferences": {},
  "source": "// SPDX-License-Identifier: MIT\npragma solidity ^0.8.7;\nimport \"@openzeppelin/contracts/token/ERC721/ERC721.sol\";\n\ncontract LiliansList is ERC721 {\n    address public owner;\n    uint public length;\n    string[] public taskNames;\n    \n    mapping(string => bool) public liliansVeryPublicWeb3ToDoList;\n   \n    // ideally make this a NFT for people to create their own todo lists lmao\n    constructor( string [] memory toDoItems) ERC721(\"LiliansList\", \"LLL\") {\n        uint i = 0;\n        \n        while(i < toDoItems.length){\n            liliansVeryPublicWeb3ToDoList[toDoItems[i]] = false;\n            taskNames.push(toDoItems[i]);\n            i++;\n        }\n        length = toDoItems.length;\n    \n    }\n\n    function setToDone(string memory name) public {\n        liliansVeryPublicWeb3ToDoList[name] = true;\n    }\n\n    function setUndone(string memory name) public {\n        liliansVeryPublicWeb3ToDoList[name] = false;\n    }\n\n    function getIsDone(string memory name) public view returns (bool) {\n        return liliansVeryPublicWeb3ToDoList[name];\n    }\n\n    function addToList(string memory name) public {\n        liliansVeryPublicWeb3ToDoList[name] = false;\n        taskNames.push(name);\n        length += 1;\n    }\n    \n    function getLength() public view returns (uint) {\n        return length;\n    }\n    function getTask(uint taskId) public view returns (string memory, bool) {\n        string memory taskName = taskNames[taskId];\n        bool isDone = getIsDone(taskName);\n        return (taskName, isDone);\n    }\n\n\n}",
  "sourcePath": "/Users/lilian/Dev/really-expensive-to-do-list-on-web3/contracts/LiliansList.sol",
  "compiler": {
    "name": "solc",
    "version": "0.8.7+commit.e28d00a7.Emscripten.clang"
  },
  "schemaVersion": "3.3.4",
  "updatedAt": "2022-04-11T14:05:37.501Z",
  "networkType": "ethereum",
  "devdoc": {
    "kind": "dev",
    "methods": {
      "approve(address,uint256)": {
        "details": "See {IERC721-approve}."
      },
      "balanceOf(address)": {
        "details": "See {IERC721-balanceOf}."
      },
      "getApproved(uint256)": {
        "details": "See {IERC721-getApproved}."
      },
      "isApprovedForAll(address,address)": {
        "details": "See {IERC721-isApprovedForAll}."
      },
      "name()": {
        "details": "See {IERC721Metadata-name}."
      },
      "ownerOf(uint256)": {
        "details": "See {IERC721-ownerOf}."
      },
      "safeTransferFrom(address,address,uint256)": {
        "details": "See {IERC721-safeTransferFrom}."
      },
      "safeTransferFrom(address,address,uint256,bytes)": {
        "details": "See {IERC721-safeTransferFrom}."
      },
      "setApprovalForAll(address,bool)": {
        "details": "See {IERC721-setApprovalForAll}."
      },
      "supportsInterface(bytes4)": {
        "details": "See {IERC165-supportsInterface}."
      },
      "symbol()": {
        "details": "See {IERC721Metadata-symbol}."
      },
      "tokenURI(uint256)": {
        "details": "See {IERC721Metadata-tokenURI}."
      },
      "transferFrom(address,address,uint256)": {
        "details": "See {IERC721-transferFrom}."
      }
    },
    "version": 1
  },
  "userdoc": {
    "kind": "user",
    "methods": {},
    "version": 1
  }
}