{
  "contractName": "LiliansList",
  "abi": [
    {
      "inputs": [
        {
          "internalType": "string[]",
          "name": "toDoItems",
          "type": "string[]"
        }
      ],
      "stateMutability": "nonpayable",
      "type": "constructor"
    },
    {
      "anonymous": false,
      "inputs": [
        {
          "indexed": true,
          "internalType": "address",
          "name": "owner",
          "type": "address"
        },
        {
          "indexed": true,
          "internalType": "address",
          "name": "approved",
          "type": "address"
        },
        {
          "indexed": true,
          "internalType": "uint256",
          "name": "tokenId",
          "type": "uint256"
        }
      ],
      "name": "Approval",
      "type": "event"
    },
    {
      "anonymous": false,
      "inputs": [
        {
          "indexed": true,
          "internalType": "address",
          "name": "owner",
          "type": "address"
        },
        {
          "indexed": true,
          "internalType": "address",
          "name": "operator",
          "type": "address"
        },
        {
          "indexed": false,
          "internalType": "bool",
          "name": "approved",
          "type": "bool"
        }
      ],
      "name": "ApprovalForAll",
      "type": "event"
    },
    {
      "anonymous": false,
      "inputs": [
        {
          "indexed": false,
          "internalType": "uint256",
          "name": "taskId",
          "type": "uint256"
        },
        {
          "indexed": false,
          "internalType": "string",
          "name": "taskName",
          "type": "string"
        }
      ],
      "name": "TaskCreated",
      "type": "event"
    },
    {
      "anonymous": false,
      "inputs": [
        {
          "indexed": false,
          "internalType": "string",
          "name": "taskName",
          "type": "string"
        }
      ],
      "name": "TaskFinished",
      "type": "event"
    },
    {
      "anonymous": false,
      "inputs": [
        {
          "indexed": true,
          "internalType": "address",
          "name": "from",
          "type": "address"
        },
        {
          "indexed": true,
          "internalType": "address",
          "name": "to",
          "type": "address"
        },
        {
          "indexed": true,
          "internalType": "uint256",
          "name": "tokenId",
          "type": "uint256"
        }
      ],
      "name": "Transfer",
      "type": "event"
    },
    {
      "inputs": [
        {
          "internalType": "address",
          "name": "to",
          "type": "address"
        },
        {
          "internalType": "uint256",
          "name": "tokenId",
          "type": "uint256"
        }
      ],
      "name": "approve",
      "outputs": [],
      "stateMutability": "nonpayable",
      "type": "function"
    },
    {
      "inputs": [
        {
          "internalType": "address",
          "name": "owner",
          "type": "address"
        }
      ],
      "name": "balanceOf",
      "outputs": [
        {
          "internalType": "uint256",
          "name": "",
          "type": "uint256"
        }
      ],
      "stateMutability": "view",
      "type": "function",
      "constant": true
    },
    {
      "inputs": [
        {
          "internalType": "uint256",
          "name": "tokenId",
          "type": "uint256"
        }
      ],
      "name": "getApproved",
      "outputs": [
        {
          "internalType": "address",
          "name": "",
          "type": "address"
        }
      ],
      "stateMutability": "view",
      "type": "function",
      "constant": true
    },
    {
      "inputs": [
        {
          "internalType": "address",
          "name": "owner",
          "type": "address"
        },
        {
          "internalType": "address",
          "name": "operator",
          "type": "address"
        }
      ],
      "name": "isApprovedForAll",
      "outputs": [
        {
          "internalType": "bool",
          "name": "",
          "type": "bool"
        }
      ],
      "stateMutability": "view",
      "type": "function",
      "constant": true
    },
    {
      "inputs": [],
      "name": "length",
      "outputs": [
        {
          "internalType": "uint256",
          "name": "",
          "type": "uint256"
        }
      ],
      "stateMutability": "view",
      "type": "function",
      "constant": true
    },
    {
      "inputs": [
        {
          "internalType": "string",
          "name": "",
          "type": "string"
        }
      ],
      "name": "liliansVeryPublicWeb3ToDoList",
      "outputs": [
        {
          "internalType": "bool",
          "name": "",
          "type": "bool"
        }
      ],
      "stateMutability": "view",
      "type": "function",
      "constant": true
    },
    {
      "inputs": [],
      "name": "name",
      "outputs": [
        {
          "internalType": "string",
          "name": "",
          "type": "string"
        }
      ],
      "stateMutability": "view",
      "type": "function",
      "constant": true
    },
    {
      "inputs": [],
      "name": "owner",
      "outputs": [
        {
          "internalType": "address",
          "name": "",
          "type": "address"
        }
      ],
      "stateMutability": "view",
      "type": "function",
      "constant": true
    },
    {
      "inputs": [
        {
          "internalType": "uint256",
          "name": "tokenId",
          "type": "uint256"
        }
      ],
      "name": "ownerOf",
      "outputs": [
        {
          "internalType": "address",
          "name": "",
          "type": "address"
        }
      ],
      "stateMutability": "view",
      "type": "function",
      "constant": true
    },
    {
      "inputs": [
        {
          "internalType": "address",
          "name": "from",
          "type": "address"
        },
        {
          "internalType": "address",
          "name": "to",
          "type": "address"
        },
        {
          "internalType": "uint256",
          "name": "tokenId",
          "type": "uint256"
        }
      ],
      "name": "safeTransferFrom",
      "outputs": [],
      "stateMutability": "nonpayable",
      "type": "function"
    },
    {
      "inputs": [
        {
          "internalType": "address",
          "name": "from",
          "type": "address"
        },
        {
          "internalType": "address",
          "name": "to",
          "type": "address"
        },
        {
          "internalType": "uint256",
          "name": "tokenId",
          "type": "uint256"
        },
        {
          "internalType": "bytes",
          "name": "_data",
          "type": "bytes"
        }
      ],
      "name": "safeTransferFrom",
      "outputs": [],
      "stateMutability": "nonpayable",
      "type": "function"
    },
    {
      "inputs": [
        {
          "internalType": "address",
          "name": "operator",
          "type": "address"
        },
        {
          "internalType": "bool",
          "name": "approved",
          "type": "bool"
        }
      ],
      "name": "setApprovalForAll",
      "outputs": [],
      "stateMutability": "nonpayable",
      "type": "function"
    },
    {
      "inputs": [
        {
          "internalType": "bytes4",
          "name": "interfaceId",
          "type": "bytes4"
        }
      ],
      "name": "supportsInterface",
      "outputs": [
        {
          "internalType": "bool",
          "name": "",
          "type": "bool"
        }
      ],
      "stateMutability": "view",
      "type": "function",
      "constant": true
    },
    {
      "inputs": [],
      "name": "symbol",
      "outputs": [
        {
          "internalType": "string",
          "name": "",
          "type": "string"
        }
      ],
      "stateMutability": "view",
      "type": "function",
      "constant": true
    },
    {
      "inputs": [
        {
          "internalType": "string",
          "name": "",
          "type": "string"
        }
      ],
      "name": "taskNameToId",
      "outputs": [
        {
          "internalType": "uint256",
          "name": "",
          "type": "uint256"
        }
      ],
      "stateMutability": "view",
      "type": "function",
      "constant": true
    },
    {
      "inputs": [
        {
          "internalType": "uint256",
          "name": "",
          "type": "uint256"
        }
      ],
      "name": "taskNames",
      "outputs": [
        {
          "internalType": "string",
          "name": "",
          "type": "string"
        }
      ],
      "stateMutability": "view",
      "type": "function",
      "constant": true
    },
    {
      "inputs": [
        {
          "internalType": "uint256",
          "name": "tokenId",
          "type": "uint256"
        }
      ],
      "name": "tokenURI",
      "outputs": [
        {
          "internalType": "string",
          "name": "",
          "type": "string"
        }
      ],
      "stateMutability": "view",
      "type": "function",
      "constant": true
    },
    {
      "inputs": [
        {
          "internalType": "address",
          "name": "from",
          "type": "address"
        },
        {
          "internalType": "address",
          "name": "to",
          "type": "address"
        },
        {
          "internalType": "uint256",
          "name": "tokenId",
          "type": "uint256"
        }
      ],
      "name": "transferFrom",
      "outputs": [],
      "stateMutability": "nonpayable",
      "type": "function"
    },
    {
      "inputs": [
        {
          "internalType": "string",
          "name": "name",
          "type": "string"
        }
      ],
      "name": "setToDone",
      "outputs": [],
      "stateMutability": "nonpayable",
      "type": "function"
    },
    {
      "inputs": [
        {
          "internalType": "string",
          "name": "name",
          "type": "string"
        }
      ],
      "name": "setUndone",
      "outputs": [],
      "stateMutability": "nonpayable",
      "type": "function"
    },
    {
      "inputs": [
        {
          "internalType": "string",
          "name": "name",
          "type": "string"
        }
      ],
      "name": "getIsDone",
      "outputs": [
        {
          "internalType": "bool",
          "name": "",
          "type": "bool"
        }
      ],
      "stateMutability": "view",
      "type": "function",
      "constant": true
    },
    {
      "inputs": [
        {
          "internalType": "string",
          "name": "name",
          "type": "string"
        }
      ],
      "name": "addToList",
      "outputs": [],
      "stateMutability": "nonpayable",
      "type": "function"
    },
    {
      "inputs": [],
      "name": "getLength",
      "outputs": [
        {
          "internalType": "uint256",
          "name": "",
          "type": "uint256"
        }
      ],
      "stateMutability": "view",
      "type": "function",
      "constant": true
    },
    {
      "inputs": [
        {
          "internalType": "uint256",
          "name": "taskId",
          "type": "uint256"
        }
      ],
      "name": "getTask",
      "outputs": [
        {
          "internalType": "string",
          "name": "",
          "type": "string"
        },
        {
          "internalType": "bool",
          "name": "",
          "type": "bool"
        }
      ],
      "stateMutability": "view",
      "type": "function",
      "constant": true
    }
  ],
  "bytecode": "0x60806040523480156200001157600080fd5b50604051620032c0380380620032c08339818101604052810190620000379190620003b8565b6040518060400160405280600b81526020017f4c696c69616e734c6973740000000000000000000000000000000000000000008152506040518060400160405280600381526020017f4c4c4c00000000000000000000000000000000000000000000000000000000008152508160009080519060200190620000bb929190620001bb565b508060019080519060200190620000d4929190620001bb565b50505060005b8151811015620001ab576000600a838381518110620000fe57620000fd62000655565b5b602002602001015160405162000115919062000440565b908152602001604051809103902060006101000a81548160ff021916908315150217905550600882828151811062000152576200015162000655565b5b602002602001015190806001815401808255809150506001900390600052602060002001600090919091909150908051906020019062000194929190620001bb565b508080620001a290620005a9565b915050620000da565b81516007819055505050620006dd565b828054620001c9906200053d565b90600052602060002090601f016020900481019282620001ed576000855562000239565b82601f106200020857805160ff191683800117855562000239565b8280016001018555821562000239579182015b82811115620002385782518255916020019190600101906200021b565b5b5090506200024891906200024c565b5090565b5b80821115620002675760008160009055506001016200024d565b5090565b6000620002826200027c8462000482565b62000459565b90508083825260208201905082856020860282011115620002a857620002a7620006b8565b5b60005b85811015620002fd57815167ffffffffffffffff811115620002d257620002d1620006b3565b5b808601620002e1898262000385565b85526020850194506020840193505050600181019050620002ab565b5050509392505050565b60006200031e6200031884620004b1565b62000459565b9050828152602081018484840111156200033d576200033c620006bd565b5b6200034a84828562000507565b509392505050565b600082601f8301126200036a5762000369620006b3565b5b81516200037c8482602086016200026b565b91505092915050565b600082601f8301126200039d576200039c620006b3565b5b8151620003af84826020860162000307565b91505092915050565b600060208284031215620003d157620003d0620006c7565b5b600082015167ffffffffffffffff811115620003f257620003f1620006c2565b5b620004008482850162000352565b91505092915050565b60006200041682620004e7565b620004228185620004f2565b93506200043481856020860162000507565b80840191505092915050565b60006200044e828462000409565b915081905092915050565b60006200046562000478565b905062000473828262000573565b919050565b6000604051905090565b600067ffffffffffffffff821115620004a0576200049f62000684565b5b602082029050602081019050919050565b600067ffffffffffffffff821115620004cf57620004ce62000684565b5b620004da82620006cc565b9050602081019050919050565b600081519050919050565b600081905092915050565b6000819050919050565b60005b83811015620005275780820151818401526020810190506200050a565b8381111562000537576000848401525b50505050565b600060028204905060018216806200055657607f821691505b602082108114156200056d576200056c62000626565b5b50919050565b6200057e82620006cc565b810181811067ffffffffffffffff82111715620005a0576200059f62000684565b5b80604052505050565b6000620005b682620004fd565b91507fffffffffffffffffffffffffffffffffffffffffffffffffffffffffffffffff821415620005ec57620005eb620005f7565b5b600182019050919050565b7f4e487b7100000000000000000000000000000000000000000000000000000000600052601160045260246000fd5b7f4e487b7100000000000000000000000000000000000000000000000000000000600052602260045260246000fd5b7f4e487b7100000000000000000000000000000000000000000000000000000000600052603260045260246000fd5b7f4e487b7100000000000000000000000000000000000000000000000000000000600052604160045260246000fd5b600080fd5b600080fd5b600080fd5b600080fd5b600080fd5b6000601f19601f8301169050919050565b612bd380620006ed6000396000f3fe608060405234801561001057600080fd5b50600436106101585760003560e01c806376da0f3e116100c3578063a22cb4651161007c578063a22cb46514610412578063b88d4fde1461042e578063be1c766b1461044a578063c87b56dd14610468578063cb84b6f814610498578063e985e9c5146104b457610158565b806376da0f3e1461033e5780637b47fad81461035a578063844de2611461038a5780638c6074a5146103ba5780638da5cb5b146103d657806395d89b41146103f457610158565b806323b872dd1161011557806323b872dd1461024657806335ecfa99146102625780633b937c641461029257806342842e0e146102c25780636352211e146102de57806370a082311461030e57610158565b806301ffc9a71461015d57806306fdde031461018d578063081812fc146101ab578063095ea7b3146101db5780631d65e77e146101f75780631f7b6d3214610228575b600080fd5b61017760048036038101906101729190611d6d565b6104e4565b6040516101849190612153565b60405180910390f35b6101956105c6565b6040516101a2919061216e565b60405180910390f35b6101c560048036038101906101c09190611e10565b610658565b6040516101d291906120ec565b60405180910390f35b6101f560048036038101906101f09190611d2d565b6106dd565b005b610211600480360381019061020c9190611e10565b6107f5565b60405161021f929190612190565b60405180910390f35b6102306108bd565b60405161023d9190612340565b60405180910390f35b610260600480360381019061025b9190611c17565b6108c3565b005b61027c60048036038101906102779190611dc7565b610923565b6040516102899190612153565b60405180910390f35b6102ac60048036038101906102a79190611dc7565b610959565b6040516102b99190612340565b60405180910390f35b6102dc60048036038101906102d79190611c17565b610987565b005b6102f860048036038101906102f39190611e10565b6109a7565b60405161030591906120ec565b60405180910390f35b61032860048036038101906103239190611baa565b610a59565b6040516103359190612340565b60405180910390f35b61035860048036038101906103539190611dc7565b610b11565b005b610374600480360381019061036f9190611e10565b610bdc565b604051610381919061216e565b60405180910390f35b6103a4600480360381019061039f9190611dc7565b610c88565b6040516103b19190612153565b60405180910390f35b6103d460048036038101906103cf9190611dc7565b610cbd565b005b6103de610cf7565b6040516103eb91906120ec565b60405180910390f35b6103fc610d1d565b604051610409919061216e565b60405180910390f35b61042c60048036038101906104279190611ced565b610daf565b005b61044860048036038101906104439190611c6a565b610dc5565b005b610452610e27565b60405161045f9190612340565b60405180910390f35b610482600480360381019061047d9190611e10565b610e31565b60405161048f919061216e565b60405180910390f35b6104b260048036038101906104ad9190611dc7565b610ed8565b005b6104ce60048036038101906104c99190611bd7565b610f49565b6040516104db9190612153565b60405180910390f35b60007f80ac58cd000000000000000000000000000000000000000000000000000000007bffffffffffffffffffffffffffffffffffffffffffffffffffffffff1916827bffffffffffffffffffffffffffffffffffffffffffffffffffffffff191614806105af57507f5b5e139f000000000000000000000000000000000000000000000000000000007bffffffffffffffffffffffffffffffffffffffffffffffffffffffff1916827bffffffffffffffffffffffffffffffffffffffffffffffffffffffff1916145b806105bf57506105be82610fdd565b5b9050919050565b6060600080546105d5906125c6565b80601f0160208091040260200160405190810160405280929190818152602001828054610601906125c6565b801561064e5780601f106106235761010080835404028352916020019161064e565b820191906000526020600020905b81548152906001019060200180831161063157829003601f168201915b5050505050905090565b600061066382611047565b6106a2576040517f08c379a0000000000000000000000000000000000000000000000000000000008152600401610699906122c0565b60405180910390fd5b6004600083815260200190815260200160002060009054906101000a900473ffffffffffffffffffffffffffffffffffffffff169050919050565b60006106e8826109a7565b90508073ffffffffffffffffffffffffffffffffffffffff168373ffffffffffffffffffffffffffffffffffffffff161415610759576040517f08c379a000000000000000000000000000000000000000000000000000000000815260040161075090612300565b60405180910390fd5b8073ffffffffffffffffffffffffffffffffffffffff166107786110b3565b73ffffffffffffffffffffffffffffffffffffffff1614806107a757506107a6816107a16110b3565b610f49565b5b6107e6576040517f08c379a00000000000000000000000000000000000000000000000000000000081526004016107dd90612260565b60405180910390fd5b6107f083836110bb565b505050565b60606000806008848154811061080e5761080d612730565b5b906000526020600020018054610823906125c6565b80601f016020809104026020016040519081016040528092919081815260200182805461084f906125c6565b801561089c5780601f106108715761010080835404028352916020019161089c565b820191906000526020600020905b81548152906001019060200180831161087f57829003601f168201915b5050505050905060006108ae82610c88565b90508181935093505050915091565b60075481565b6108d46108ce6110b3565b82611174565b610913576040517f08c379a000000000000000000000000000000000000000000000000000000000815260040161090a90612320565b60405180910390fd5b61091e838383611252565b505050565b600a818051602081018201805184825260208301602085012081835280955050505050506000915054906101000a900460ff1681565b6009818051602081018201805184825260208301602085012081835280955050505050506000915090505481565b6109a283838360405180602001604052806000815250610dc5565b505050565b6000806002600084815260200190815260200160002060009054906101000a900473ffffffffffffffffffffffffffffffffffffffff169050600073ffffffffffffffffffffffffffffffffffffffff168173ffffffffffffffffffffffffffffffffffffffff161415610a50576040517f08c379a0000000000000000000000000000000000000000000000000000000008152600401610a47906122a0565b60405180910390fd5b80915050919050565b60008073ffffffffffffffffffffffffffffffffffffffff168273ffffffffffffffffffffffffffffffffffffffff161415610aca576040517f08c379a0000000000000000000000000000000000000000000000000000000008152600401610ac190612280565b60405180910390fd5b600360008373ffffffffffffffffffffffffffffffffffffffff1673ffffffffffffffffffffffffffffffffffffffff168152602001908152602001600020549050919050565b6000600a82604051610b2391906120b1565b908152602001604051809103902060006101000a81548160ff021916908315150217905550600881908060018154018082558091505060019003906000526020600020016000909190919091509080519060200190610b839291906119be565b50600160076000828254610b979190612455565b925050819055507fa5ed9e6226c584326505694539c95cb0e3238ae09bcda5a65c00bbfdab1c666260075482604051610bd192919061235b565b60405180910390a150565b60088181548110610bec57600080fd5b906000526020600020016000915090508054610c07906125c6565b80601f0160208091040260200160405190810160405280929190818152602001828054610c33906125c6565b8015610c805780601f10610c5557610100808354040283529160200191610c80565b820191906000526020600020905b815481529060010190602001808311610c6357829003601f168201915b505050505081565b6000600a82604051610c9a91906120b1565b908152602001604051809103902060009054906101000a900460ff169050919050565b6000600a82604051610ccf91906120b1565b908152602001604051809103902060006101000a81548160ff02191690831515021790555050565b600660009054906101000a900473ffffffffffffffffffffffffffffffffffffffff1681565b606060018054610d2c906125c6565b80601f0160208091040260200160405190810160405280929190818152602001828054610d58906125c6565b8015610da55780601f10610d7a57610100808354040283529160200191610da5565b820191906000526020600020905b815481529060010190602001808311610d8857829003601f168201915b5050505050905090565b610dc1610dba6110b3565b83836114b9565b5050565b610dd6610dd06110b3565b83611174565b610e15576040517f08c379a0000000000000000000000000000000000000000000000000000000008152600401610e0c90612320565b60405180910390fd5b610e2184848484611626565b50505050565b6000600754905090565b6060610e3c82611047565b610e7b576040517f08c379a0000000000000000000000000000000000000000000000000000000008152600401610e72906122e0565b60405180910390fd5b6000610e85611682565b90506000815111610ea55760405180602001604052806000815250610ed0565b80610eaf84611699565b604051602001610ec09291906120c8565b6040516020818303038152906040525b915050919050565b6001600a82604051610eea91906120b1565b908152602001604051809103902060006101000a81548160ff0219169083151502179055507fe7018e6dd4102db145107af976ee952ef54cdc90e9607fab1ef14b652a8ed49681604051610f3e919061216e565b60405180910390a150565b6000600560008473ffffffffffffffffffffffffffffffffffffffff1673ffffffffffffffffffffffffffffffffffffffff16815260200190815260200160002060008373ffffffffffffffffffffffffffffffffffffffff1673ffffffffffffffffffffffffffffffffffffffff16815260200190815260200160002060009054906101000a900460ff16905092915050565b60007f01ffc9a7000000000000000000000000000000000000000000000000000000007bffffffffffffffffffffffffffffffffffffffffffffffffffffffff1916827bffffffffffffffffffffffffffffffffffffffffffffffffffffffff1916149050919050565b60008073ffffffffffffffffffffffffffffffffffffffff166002600084815260200190815260200160002060009054906101000a900473ffffffffffffffffffffffffffffffffffffffff1673ffffffffffffffffffffffffffffffffffffffff1614159050919050565b600033905090565b816004600083815260200190815260200160002060006101000a81548173ffffffffffffffffffffffffffffffffffffffff021916908373ffffffffffffffffffffffffffffffffffffffff160217905550808273ffffffffffffffffffffffffffffffffffffffff1661112e836109a7565b73ffffffffffffffffffffffffffffffffffffffff167f8c5be1e5ebec7d5bd14f71427d1e84f3dd0314c0f7b2291e5b200ac8c7c3b92560405160405180910390a45050565b600061117f82611047565b6111be576040517f08c379a00000000000000000000000000000000000000000000000000000000081526004016111b590612240565b60405180910390fd5b60006111c9836109a7565b90508073ffffffffffffffffffffffffffffffffffffffff168473ffffffffffffffffffffffffffffffffffffffff16148061123857508373ffffffffffffffffffffffffffffffffffffffff1661122084610658565b73ffffffffffffffffffffffffffffffffffffffff16145b8061124957506112488185610f49565b5b91505092915050565b8273ffffffffffffffffffffffffffffffffffffffff16611272826109a7565b73ffffffffffffffffffffffffffffffffffffffff16146112c8576040517f08c379a00000000000000000000000000000000000000000000000000000000081526004016112bf906121e0565b60405180910390fd5b600073ffffffffffffffffffffffffffffffffffffffff168273ffffffffffffffffffffffffffffffffffffffff161415611338576040517f08c379a000000000000000000000000000000000000000000000000000000000815260040161132f90612200565b60405180910390fd5b6113438383836117fa565b61134e6000826110bb565b6001600360008573ffffffffffffffffffffffffffffffffffffffff1673ffffffffffffffffffffffffffffffffffffffff168152602001908152602001600020600082825461139e91906124dc565b925050819055506001600360008473ffffffffffffffffffffffffffffffffffffffff1673ffffffffffffffffffffffffffffffffffffffff16815260200190815260200160002060008282546113f59190612455565b92505081905550816002600083815260200190815260200160002060006101000a81548173ffffffffffffffffffffffffffffffffffffffff021916908373ffffffffffffffffffffffffffffffffffffffff160217905550808273ffffffffffffffffffffffffffffffffffffffff168473ffffffffffffffffffffffffffffffffffffffff167fddf252ad1be2c89b69c2b068fc378daa952ba7f163c4a11628f55a4df523b3ef60405160405180910390a46114b48383836117ff565b505050565b8173ffffffffffffffffffffffffffffffffffffffff168373ffffffffffffffffffffffffffffffffffffffff161415611528576040517f08c379a000000000000000000000000000000000000000000000000000000000815260040161151f90612220565b60405180910390fd5b80600560008573ffffffffffffffffffffffffffffffffffffffff1673ffffffffffffffffffffffffffffffffffffffff16815260200190815260200160002060008473ffffffffffffffffffffffffffffffffffffffff1673ffffffffffffffffffffffffffffffffffffffff16815260200190815260200160002060006101000a81548160ff0219169083151502179055508173ffffffffffffffffffffffffffffffffffffffff168373ffffffffffffffffffffffffffffffffffffffff167f17307eab39ab6107e8899845ad3d59bd9653f200f220920489ca2b5937696c31836040516116199190612153565b60405180910390a3505050565b611631848484611252565b61163d84848484611804565b61167c576040517f08c379a0000000000000000000000000000000000000000000000000000000008152600401611673906121c0565b60405180910390fd5b50505050565b606060405180602001604052806000815250905090565b606060008214156116e1576040518060400160405280600181526020017f300000000000000000000000000000000000000000000000000000000000000081525090506117f5565b600082905060005b600082146117135780806116fc90612629565b915050600a8261170c91906124ab565b91506116e9565b60008167ffffffffffffffff81111561172f5761172e61275f565b5b6040519080825280601f01601f1916602001820160405280156117615781602001600182028036833780820191505090505b5090505b600085146117ee5760018261177a91906124dc565b9150600a856117899190612672565b60306117959190612455565b60f81b8183815181106117ab576117aa612730565b5b60200101907effffffffffffffffffffffffffffffffffffffffffffffffffffffffffffff1916908160001a905350600a856117e791906124ab565b9450611765565b8093505050505b919050565b505050565b505050565b60006118258473ffffffffffffffffffffffffffffffffffffffff1661199b565b1561198e578373ffffffffffffffffffffffffffffffffffffffff1663150b7a0261184e6110b3565b8786866040518563ffffffff1660e01b81526004016118709493929190612107565b602060405180830381600087803b15801561188a57600080fd5b505af19250505080156118bb57506040513d601f19601f820116820180604052508101906118b89190611d9a565b60015b61193e573d80600081146118eb576040519150601f19603f3d011682016040523d82523d6000602084013e6118f0565b606091505b50600081511415611936576040517f08c379a000000000000000000000000000000000000000000000000000000000815260040161192d906121c0565b60405180910390fd5b805181602001fd5b63150b7a0260e01b7bffffffffffffffffffffffffffffffffffffffffffffffffffffffff1916817bffffffffffffffffffffffffffffffffffffffffffffffffffffffff191614915050611993565b600190505b949350505050565b6000808273ffffffffffffffffffffffffffffffffffffffff163b119050919050565b8280546119ca906125c6565b90600052602060002090601f0160209004810192826119ec5760008555611a33565b82601f10611a0557805160ff1916838001178555611a33565b82800160010185558215611a33579182015b82811115611a32578251825591602001919060010190611a17565b5b509050611a409190611a44565b5090565b5b80821115611a5d576000816000905550600101611a45565b5090565b6000611a74611a6f846123b0565b61238b565b905082815260208101848484011115611a9057611a8f612793565b5b611a9b848285612584565b509392505050565b6000611ab6611ab1846123e1565b61238b565b905082815260208101848484011115611ad257611ad1612793565b5b611add848285612584565b509392505050565b600081359050611af481612b41565b92915050565b600081359050611b0981612b58565b92915050565b600081359050611b1e81612b6f565b92915050565b600081519050611b3381612b6f565b92915050565b600082601f830112611b4e57611b4d61278e565b5b8135611b5e848260208601611a61565b91505092915050565b600082601f830112611b7c57611b7b61278e565b5b8135611b8c848260208601611aa3565b91505092915050565b600081359050611ba481612b86565b92915050565b600060208284031215611bc057611bbf61279d565b5b6000611bce84828501611ae5565b91505092915050565b60008060408385031215611bee57611bed61279d565b5b6000611bfc85828601611ae5565b9250506020611c0d85828601611ae5565b9150509250929050565b600080600060608486031215611c3057611c2f61279d565b5b6000611c3e86828701611ae5565b9350506020611c4f86828701611ae5565b9250506040611c6086828701611b95565b9150509250925092565b60008060008060808587031215611c8457611c8361279d565b5b6000611c9287828801611ae5565b9450506020611ca387828801611ae5565b9350506040611cb487828801611b95565b925050606085013567ffffffffffffffff811115611cd557611cd4612798565b5b611ce187828801611b39565b91505092959194509250565b60008060408385031215611d0457611d0361279d565b5b6000611d1285828601611ae5565b9250506020611d2385828601611afa565b9150509250929050565b60008060408385031215611d4457611d4361279d565b5b6000611d5285828601611ae5565b9250506020611d6385828601611b95565b9150509250929050565b600060208284031215611d8357611d8261279d565b5b6000611d9184828501611b0f565b91505092915050565b600060208284031215611db057611daf61279d565b5b6000611dbe84828501611b24565b91505092915050565b600060208284031215611ddd57611ddc61279d565b5b600082013567ffffffffffffffff811115611dfb57611dfa612798565b5b611e0784828501611b67565b91505092915050565b600060208284031215611e2657611e2561279d565b5b6000611e3484828501611b95565b91505092915050565b611e4681612510565b82525050565b611e5581612522565b82525050565b6000611e6682612412565b611e708185612428565b9350611e80818560208601612593565b611e89816127a2565b840191505092915050565b6000611e9f8261241d565b611ea98185612439565b9350611eb9818560208601612593565b611ec2816127a2565b840191505092915050565b6000611ed88261241d565b611ee2818561244a565b9350611ef2818560208601612593565b80840191505092915050565b6000611f0b603283612439565b9150611f16826127b3565b604082019050919050565b6000611f2e602583612439565b9150611f3982612802565b604082019050919050565b6000611f51602483612439565b9150611f5c82612851565b604082019050919050565b6000611f74601983612439565b9150611f7f826128a0565b602082019050919050565b6000611f97602c83612439565b9150611fa2826128c9565b604082019050919050565b6000611fba603883612439565b9150611fc582612918565b604082019050919050565b6000611fdd602a83612439565b9150611fe882612967565b604082019050919050565b6000612000602983612439565b915061200b826129b6565b604082019050919050565b6000612023602c83612439565b915061202e82612a05565b604082019050919050565b6000612046602f83612439565b915061205182612a54565b604082019050919050565b6000612069602183612439565b915061207482612aa3565b604082019050919050565b600061208c603183612439565b915061209782612af2565b604082019050919050565b6120ab8161257a565b82525050565b60006120bd8284611ecd565b915081905092915050565b60006120d48285611ecd565b91506120e08284611ecd565b91508190509392505050565b60006020820190506121016000830184611e3d565b92915050565b600060808201905061211c6000830187611e3d565b6121296020830186611e3d565b61213660408301856120a2565b81810360608301526121488184611e5b565b905095945050505050565b60006020820190506121686000830184611e4c565b92915050565b600060208201905081810360008301526121888184611e94565b905092915050565b600060408201905081810360008301526121aa8185611e94565b90506121b96020830184611e4c565b9392505050565b600060208201905081810360008301526121d981611efe565b9050919050565b600060208201905081810360008301526121f981611f21565b9050919050565b6000602082019050818103600083015261221981611f44565b9050919050565b6000602082019050818103600083015261223981611f67565b9050919050565b6000602082019050818103600083015261225981611f8a565b9050919050565b6000602082019050818103600083015261227981611fad565b9050919050565b6000602082019050818103600083015261229981611fd0565b9050919050565b600060208201905081810360008301526122b981611ff3565b9050919050565b600060208201905081810360008301526122d981612016565b9050919050565b600060208201905081810360008301526122f981612039565b9050919050565b600060208201905081810360008301526123198161205c565b9050919050565b600060208201905081810360008301526123398161207f565b9050919050565b600060208201905061235560008301846120a2565b92915050565b600060408201905061237060008301856120a2565b81810360208301526123828184611e94565b90509392505050565b60006123956123a6565b90506123a182826125f8565b919050565b6000604051905090565b600067ffffffffffffffff8211156123cb576123ca61275f565b5b6123d4826127a2565b9050602081019050919050565b600067ffffffffffffffff8211156123fc576123fb61275f565b5b612405826127a2565b9050602081019050919050565b600081519050919050565b600081519050919050565b600082825260208201905092915050565b600082825260208201905092915050565b600081905092915050565b60006124608261257a565b915061246b8361257a565b9250827fffffffffffffffffffffffffffffffffffffffffffffffffffffffffffffffff038211156124a05761249f6126a3565b5b828201905092915050565b60006124b68261257a565b91506124c18361257a565b9250826124d1576124d06126d2565b5b828204905092915050565b60006124e78261257a565b91506124f28361257a565b925082821015612505576125046126a3565b5b828203905092915050565b600061251b8261255a565b9050919050565b60008115159050919050565b60007fffffffff0000000000000000000000000000000000000000000000000000000082169050919050565b600073ffffffffffffffffffffffffffffffffffffffff82169050919050565b6000819050919050565b82818337600083830152505050565b60005b838110156125b1578082015181840152602081019050612596565b838111156125c0576000848401525b50505050565b600060028204905060018216806125de57607f821691505b602082108114156125f2576125f1612701565b5b50919050565b612601826127a2565b810181811067ffffffffffffffff821117156126205761261f61275f565b5b80604052505050565b60006126348261257a565b91507fffffffffffffffffffffffffffffffffffffffffffffffffffffffffffffffff821415612667576126666126a3565b5b600182019050919050565b600061267d8261257a565b91506126888361257a565b925082612698576126976126d2565b5b828206905092915050565b7f4e487b7100000000000000000000000000000000000000000000000000000000600052601160045260246000fd5b7f4e487b7100000000000000000000000000000000000000000000000000000000600052601260045260246000fd5b7f4e487b7100000000000000000000000000000000000000000000000000000000600052602260045260246000fd5b7f4e487b7100000000000000000000000000000000000000000000000000000000600052603260045260246000fd5b7f4e487b7100000000000000000000000000000000000000000000000000000000600052604160045260246000fd5b600080fd5b600080fd5b600080fd5b600080fd5b6000601f19601f8301169050919050565b7f4552433732313a207472616e7366657220746f206e6f6e20455243373231526560008201527f63656976657220696d706c656d656e7465720000000000000000000000000000602082015250565b7f4552433732313a207472616e736665722066726f6d20696e636f72726563742060008201527f6f776e6572000000000000000000000000000000000000000000000000000000602082015250565b7f4552433732313a207472616e7366657220746f20746865207a65726f2061646460008201527f7265737300000000000000000000000000000000000000000000000000000000602082015250565b7f4552433732313a20617070726f766520746f2063616c6c657200000000000000600082015250565b7f4552433732313a206f70657261746f7220717565727920666f72206e6f6e657860008201527f697374656e7420746f6b656e0000000000000000000000000000000000000000602082015250565b7f4552433732313a20617070726f76652063616c6c6572206973206e6f74206f7760008201527f6e6572206e6f7220617070726f76656420666f7220616c6c0000000000000000602082015250565b7f4552433732313a2062616c616e636520717565727920666f7220746865207a6560008201527f726f206164647265737300000000000000000000000000000000000000000000602082015250565b7f4552433732313a206f776e657220717565727920666f72206e6f6e657869737460008201527f656e7420746f6b656e0000000000000000000000000000000000000000000000602082015250565b7f4552433732313a20617070726f76656420717565727920666f72206e6f6e657860008201527f697374656e7420746f6b656e0000000000000000000000000000000000000000602082015250565b7f4552433732314d657461646174613a2055524920717565727920666f72206e6f60008201527f6e6578697374656e7420746f6b656e0000000000000000000000000000000000602082015250565b7f4552433732313a20617070726f76616c20746f2063757272656e74206f776e6560008201527f7200000000000000000000000000000000000000000000000000000000000000602082015250565b7f4552433732313a207472616e736665722063616c6c6572206973206e6f74206f60008201527f776e6572206e6f7220617070726f766564000000000000000000000000000000602082015250565b612b4a81612510565b8114612b5557600080fd5b50565b612b6181612522565b8114612b6c57600080fd5b50565b612b788161252e565b8114612b8357600080fd5b50565b612b8f8161257a565b8114612b9a57600080fd5b5056fea26469706673582212207a3fc4dc0a8f050326a132d8d06871ce6a6e891b82b8b0095925e67ee581e88a64736f6c63430008070033",
  "immutableReferences": {},
  "source": "// SPDX-License-Identifier: MIT\npragma solidity ^0.8.7;\nimport \"@openzeppelin/contracts/token/ERC721/ERC721.sol\";\n\ncontract LiliansList is ERC721 {\n    address public owner;\n    uint public length;\n    string[] public taskNames;\n    event TaskCreated (\n        uint256 taskId,\n        string taskName\n    );\n\n    event TaskFinished (\n        string taskName\n    );\n    mapping(string => uint) public taskNameToId;\n    mapping(string => bool) public liliansVeryPublicWeb3ToDoList;\n   \n    // ideally make this a NFT for people to create their own todo lists lmao\n    constructor( string [] memory toDoItems) ERC721(\"LiliansList\", \"LLL\") {\n        uint i = 0;\n        \n        while(i < toDoItems.length){\n            liliansVeryPublicWeb3ToDoList[toDoItems[i]] = false;\n            taskNames.push(toDoItems[i]);\n            i++;\n        }\n        length = toDoItems.length;\n    \n    }\n\n    function setToDone(string memory name) public {\n        liliansVeryPublicWeb3ToDoList[name] = true;\n        \n        emit TaskFinished(\n            name\n        );\n    }\n\n    function setUndone(string memory name) public {\n        liliansVeryPublicWeb3ToDoList[name] = false;\n    }\n\n    function getIsDone(string memory name) public view returns (bool) {\n        return liliansVeryPublicWeb3ToDoList[name];\n    }\n\n    function addToList(string memory name) public {\n        liliansVeryPublicWeb3ToDoList[name] = false;\n        taskNames.push(name);\n        length += 1;\n        emit TaskCreated(\n            length,\n            name\n        );\n    }\n    \n    function getLength() public view returns (uint) {\n        return length;\n    }\n\n    function getTask(uint taskId) public view returns (string memory, bool) {\n        string memory taskName = taskNames[taskId];\n        bool isDone = getIsDone(taskName);\n        return (taskName, isDone);\n    }\n}",
  "sourcePath": "/Users/lilian/Dev/really-expensive-to-do-list-on-web3/contracts/LiliansList.sol",
  "compiler": {
    "name": "solc",
    "version": "0.8.7+commit.e28d00a7.Emscripten.clang"
  },
  "schemaVersion": "3.3.4",
  "updatedAt": "2022-04-13T15:13:22.895Z",
  "networkType": "ethereum",
  "devdoc": {
    "kind": "dev",
    "methods": {
      "approve(address,uint256)": {
        "details": "See {IERC721-approve}."
      },
      "balanceOf(address)": {
        "details": "See {IERC721-balanceOf}."
      },
      "getApproved(uint256)": {
        "details": "See {IERC721-getApproved}."
      },
      "isApprovedForAll(address,address)": {
        "details": "See {IERC721-isApprovedForAll}."
      },
      "name()": {
        "details": "See {IERC721Metadata-name}."
      },
      "ownerOf(uint256)": {
        "details": "See {IERC721-ownerOf}."
      },
      "safeTransferFrom(address,address,uint256)": {
        "details": "See {IERC721-safeTransferFrom}."
      },
      "safeTransferFrom(address,address,uint256,bytes)": {
        "details": "See {IERC721-safeTransferFrom}."
      },
      "setApprovalForAll(address,bool)": {
        "details": "See {IERC721-setApprovalForAll}."
      },
      "supportsInterface(bytes4)": {
        "details": "See {IERC165-supportsInterface}."
      },
      "symbol()": {
        "details": "See {IERC721Metadata-symbol}."
      },
      "tokenURI(uint256)": {
        "details": "See {IERC721Metadata-tokenURI}."
      },
      "transferFrom(address,address,uint256)": {
        "details": "See {IERC721-transferFrom}."
      }
    },
    "version": 1
  },
  "userdoc": {
    "kind": "user",
    "methods": {},
    "version": 1
  }
}