{
  "contractName": "LiliansList",
  "abi": [
    {
      "inputs": [
        {
          "internalType": "string[]",
          "name": "toDoItems",
          "type": "string[]"
        }
      ],
      "stateMutability": "nonpayable",
      "type": "constructor"
    },
    {
      "anonymous": false,
      "inputs": [
        {
          "indexed": true,
          "internalType": "address",
          "name": "owner",
          "type": "address"
        },
        {
          "indexed": true,
          "internalType": "address",
          "name": "approved",
          "type": "address"
        },
        {
          "indexed": true,
          "internalType": "uint256",
          "name": "tokenId",
          "type": "uint256"
        }
      ],
      "name": "Approval",
      "type": "event"
    },
    {
      "anonymous": false,
      "inputs": [
        {
          "indexed": true,
          "internalType": "address",
          "name": "owner",
          "type": "address"
        },
        {
          "indexed": true,
          "internalType": "address",
          "name": "operator",
          "type": "address"
        },
        {
          "indexed": false,
          "internalType": "bool",
          "name": "approved",
          "type": "bool"
        }
      ],
      "name": "ApprovalForAll",
      "type": "event"
    },
    {
      "anonymous": false,
      "inputs": [
        {
          "indexed": false,
          "internalType": "uint256",
          "name": "taskId",
          "type": "uint256"
        },
        {
          "indexed": false,
          "internalType": "string",
          "name": "taskName",
          "type": "string"
        }
      ],
      "name": "TaskCreated",
      "type": "event"
    },
    {
      "anonymous": false,
      "inputs": [
        {
          "indexed": true,
          "internalType": "address",
          "name": "from",
          "type": "address"
        },
        {
          "indexed": true,
          "internalType": "address",
          "name": "to",
          "type": "address"
        },
        {
          "indexed": true,
          "internalType": "uint256",
          "name": "tokenId",
          "type": "uint256"
        }
      ],
      "name": "Transfer",
      "type": "event"
    },
    {
      "inputs": [
        {
          "internalType": "address",
          "name": "to",
          "type": "address"
        },
        {
          "internalType": "uint256",
          "name": "tokenId",
          "type": "uint256"
        }
      ],
      "name": "approve",
      "outputs": [],
      "stateMutability": "nonpayable",
      "type": "function"
    },
    {
      "inputs": [
        {
          "internalType": "address",
          "name": "owner",
          "type": "address"
        }
      ],
      "name": "balanceOf",
      "outputs": [
        {
          "internalType": "uint256",
          "name": "",
          "type": "uint256"
        }
      ],
      "stateMutability": "view",
      "type": "function",
      "constant": true
    },
    {
      "inputs": [
        {
          "internalType": "uint256",
          "name": "tokenId",
          "type": "uint256"
        }
      ],
      "name": "getApproved",
      "outputs": [
        {
          "internalType": "address",
          "name": "",
          "type": "address"
        }
      ],
      "stateMutability": "view",
      "type": "function",
      "constant": true
    },
    {
      "inputs": [
        {
          "internalType": "address",
          "name": "owner",
          "type": "address"
        },
        {
          "internalType": "address",
          "name": "operator",
          "type": "address"
        }
      ],
      "name": "isApprovedForAll",
      "outputs": [
        {
          "internalType": "bool",
          "name": "",
          "type": "bool"
        }
      ],
      "stateMutability": "view",
      "type": "function",
      "constant": true
    },
    {
      "inputs": [],
      "name": "length",
      "outputs": [
        {
          "internalType": "uint256",
          "name": "",
          "type": "uint256"
        }
      ],
      "stateMutability": "view",
      "type": "function",
      "constant": true
    },
    {
      "inputs": [
        {
          "internalType": "string",
          "name": "",
          "type": "string"
        }
      ],
      "name": "liliansVeryPublicWeb3ToDoList",
      "outputs": [
        {
          "internalType": "bool",
          "name": "",
          "type": "bool"
        }
      ],
      "stateMutability": "view",
      "type": "function",
      "constant": true
    },
    {
      "inputs": [],
      "name": "name",
      "outputs": [
        {
          "internalType": "string",
          "name": "",
          "type": "string"
        }
      ],
      "stateMutability": "view",
      "type": "function",
      "constant": true
    },
    {
      "inputs": [],
      "name": "owner",
      "outputs": [
        {
          "internalType": "address",
          "name": "",
          "type": "address"
        }
      ],
      "stateMutability": "view",
      "type": "function",
      "constant": true
    },
    {
      "inputs": [
        {
          "internalType": "uint256",
          "name": "tokenId",
          "type": "uint256"
        }
      ],
      "name": "ownerOf",
      "outputs": [
        {
          "internalType": "address",
          "name": "",
          "type": "address"
        }
      ],
      "stateMutability": "view",
      "type": "function",
      "constant": true
    },
    {
      "inputs": [
        {
          "internalType": "address",
          "name": "from",
          "type": "address"
        },
        {
          "internalType": "address",
          "name": "to",
          "type": "address"
        },
        {
          "internalType": "uint256",
          "name": "tokenId",
          "type": "uint256"
        }
      ],
      "name": "safeTransferFrom",
      "outputs": [],
      "stateMutability": "nonpayable",
      "type": "function"
    },
    {
      "inputs": [
        {
          "internalType": "address",
          "name": "from",
          "type": "address"
        },
        {
          "internalType": "address",
          "name": "to",
          "type": "address"
        },
        {
          "internalType": "uint256",
          "name": "tokenId",
          "type": "uint256"
        },
        {
          "internalType": "bytes",
          "name": "_data",
          "type": "bytes"
        }
      ],
      "name": "safeTransferFrom",
      "outputs": [],
      "stateMutability": "nonpayable",
      "type": "function"
    },
    {
      "inputs": [
        {
          "internalType": "address",
          "name": "operator",
          "type": "address"
        },
        {
          "internalType": "bool",
          "name": "approved",
          "type": "bool"
        }
      ],
      "name": "setApprovalForAll",
      "outputs": [],
      "stateMutability": "nonpayable",
      "type": "function"
    },
    {
      "inputs": [
        {
          "internalType": "bytes4",
          "name": "interfaceId",
          "type": "bytes4"
        }
      ],
      "name": "supportsInterface",
      "outputs": [
        {
          "internalType": "bool",
          "name": "",
          "type": "bool"
        }
      ],
      "stateMutability": "view",
      "type": "function",
      "constant": true
    },
    {
      "inputs": [],
      "name": "symbol",
      "outputs": [
        {
          "internalType": "string",
          "name": "",
          "type": "string"
        }
      ],
      "stateMutability": "view",
      "type": "function",
      "constant": true
    },
    {
      "inputs": [
        {
          "internalType": "uint256",
          "name": "",
          "type": "uint256"
        }
      ],
      "name": "taskNames",
      "outputs": [
        {
          "internalType": "string",
          "name": "",
          "type": "string"
        }
      ],
      "stateMutability": "view",
      "type": "function",
      "constant": true
    },
    {
      "inputs": [
        {
          "internalType": "uint256",
          "name": "tokenId",
          "type": "uint256"
        }
      ],
      "name": "tokenURI",
      "outputs": [
        {
          "internalType": "string",
          "name": "",
          "type": "string"
        }
      ],
      "stateMutability": "view",
      "type": "function",
      "constant": true
    },
    {
      "inputs": [
        {
          "internalType": "address",
          "name": "from",
          "type": "address"
        },
        {
          "internalType": "address",
          "name": "to",
          "type": "address"
        },
        {
          "internalType": "uint256",
          "name": "tokenId",
          "type": "uint256"
        }
      ],
      "name": "transferFrom",
      "outputs": [],
      "stateMutability": "nonpayable",
      "type": "function"
    },
    {
      "inputs": [
        {
          "internalType": "string",
          "name": "name",
          "type": "string"
        }
      ],
      "name": "setToDone",
      "outputs": [],
      "stateMutability": "nonpayable",
      "type": "function"
    },
    {
      "inputs": [
        {
          "internalType": "string",
          "name": "name",
          "type": "string"
        }
      ],
      "name": "setUndone",
      "outputs": [],
      "stateMutability": "nonpayable",
      "type": "function"
    },
    {
      "inputs": [
        {
          "internalType": "string",
          "name": "name",
          "type": "string"
        }
      ],
      "name": "getIsDone",
      "outputs": [
        {
          "internalType": "bool",
          "name": "",
          "type": "bool"
        }
      ],
      "stateMutability": "view",
      "type": "function",
      "constant": true
    },
    {
      "inputs": [
        {
          "internalType": "string",
          "name": "name",
          "type": "string"
        }
      ],
      "name": "addToList",
      "outputs": [],
      "stateMutability": "nonpayable",
      "type": "function"
    },
    {
      "inputs": [],
      "name": "getLength",
      "outputs": [
        {
          "internalType": "uint256",
          "name": "",
          "type": "uint256"
        }
      ],
      "stateMutability": "view",
      "type": "function",
      "constant": true
    },
    {
      "inputs": [
        {
          "internalType": "uint256",
          "name": "taskId",
          "type": "uint256"
        }
      ],
      "name": "getTask",
      "outputs": [
        {
          "internalType": "string",
          "name": "",
          "type": "string"
        },
        {
          "internalType": "bool",
          "name": "",
          "type": "bool"
        }
      ],
      "stateMutability": "view",
      "type": "function",
      "constant": true
    }
  ],
  "bytecode": "0x60806040523480156200001157600080fd5b5060405162003220380380620032208339818101604052810190620000379190620003b8565b6040518060400160405280600b81526020017f4c696c69616e734c6973740000000000000000000000000000000000000000008152506040518060400160405280600381526020017f4c4c4c00000000000000000000000000000000000000000000000000000000008152508160009080519060200190620000bb929190620001bb565b508060019080519060200190620000d4929190620001bb565b50505060005b8151811015620001ab5760006009838381518110620000fe57620000fd62000655565b5b602002602001015160405162000115919062000440565b908152602001604051809103902060006101000a81548160ff021916908315150217905550600882828151811062000152576200015162000655565b5b602002602001015190806001815401808255809150506001900390600052602060002001600090919091909150908051906020019062000194929190620001bb565b508080620001a290620005a9565b915050620000da565b81516007819055505050620006dd565b828054620001c9906200053d565b90600052602060002090601f016020900481019282620001ed576000855562000239565b82601f106200020857805160ff191683800117855562000239565b8280016001018555821562000239579182015b82811115620002385782518255916020019190600101906200021b565b5b5090506200024891906200024c565b5090565b5b80821115620002675760008160009055506001016200024d565b5090565b6000620002826200027c8462000482565b62000459565b90508083825260208201905082856020860282011115620002a857620002a7620006b8565b5b60005b85811015620002fd57815167ffffffffffffffff811115620002d257620002d1620006b3565b5b808601620002e1898262000385565b85526020850194506020840193505050600181019050620002ab565b5050509392505050565b60006200031e6200031884620004b1565b62000459565b9050828152602081018484840111156200033d576200033c620006bd565b5b6200034a84828562000507565b509392505050565b600082601f8301126200036a5762000369620006b3565b5b81516200037c8482602086016200026b565b91505092915050565b600082601f8301126200039d576200039c620006b3565b5b8151620003af84826020860162000307565b91505092915050565b600060208284031215620003d157620003d0620006c7565b5b600082015167ffffffffffffffff811115620003f257620003f1620006c2565b5b620004008482850162000352565b91505092915050565b60006200041682620004e7565b620004228185620004f2565b93506200043481856020860162000507565b80840191505092915050565b60006200044e828462000409565b915081905092915050565b60006200046562000478565b905062000473828262000573565b919050565b6000604051905090565b600067ffffffffffffffff821115620004a0576200049f62000684565b5b602082029050602081019050919050565b600067ffffffffffffffff821115620004cf57620004ce62000684565b5b620004da82620006cc565b9050602081019050919050565b600081519050919050565b600081905092915050565b6000819050919050565b60005b83811015620005275780820151818401526020810190506200050a565b8381111562000537576000848401525b50505050565b600060028204905060018216806200055657607f821691505b602082108114156200056d576200056c62000626565b5b50919050565b6200057e82620006cc565b810181811067ffffffffffffffff82111715620005a0576200059f62000684565b5b80604052505050565b6000620005b682620004fd565b91507fffffffffffffffffffffffffffffffffffffffffffffffffffffffffffffffff821415620005ec57620005eb620005f7565b5b600182019050919050565b7f4e487b7100000000000000000000000000000000000000000000000000000000600052601160045260246000fd5b7f4e487b7100000000000000000000000000000000000000000000000000000000600052602260045260246000fd5b7f4e487b7100000000000000000000000000000000000000000000000000000000600052603260045260246000fd5b7f4e487b7100000000000000000000000000000000000000000000000000000000600052604160045260246000fd5b600080fd5b600080fd5b600080fd5b600080fd5b600080fd5b6000601f19601f8301169050919050565b612b3380620006ed6000396000f3fe608060405234801561001057600080fd5b506004361061014d5760003560e01c806376da0f3e116100c3578063a22cb4651161007c578063a22cb465146103d7578063b88d4fde146103f3578063be1c766b1461040f578063c87b56dd1461042d578063cb84b6f81461045d578063e985e9c5146104795761014d565b806376da0f3e146103035780637b47fad81461031f578063844de2611461034f5780638c6074a51461037f5780638da5cb5b1461039b57806395d89b41146103b95761014d565b80631f7b6d32116101155780631f7b6d321461021d57806323b872dd1461023b57806335ecfa991461025757806342842e0e146102875780636352211e146102a357806370a08231146102d35761014d565b806301ffc9a71461015257806306fdde0314610182578063081812fc146101a0578063095ea7b3146101d05780631d65e77e146101ec575b600080fd5b61016c60048036038101906101679190611ccd565b6104a9565b60405161017991906120b3565b60405180910390f35b61018a61058b565b60405161019791906120ce565b60405180910390f35b6101ba60048036038101906101b59190611d70565b61061d565b6040516101c7919061204c565b60405180910390f35b6101ea60048036038101906101e59190611c8d565b6106a2565b005b61020660048036038101906102019190611d70565b6107ba565b6040516102149291906120f0565b60405180910390f35b610225610882565b60405161023291906122a0565b60405180910390f35b61025560048036038101906102509190611b77565b610888565b005b610271600480360381019061026c9190611d27565b6108e8565b60405161027e91906120b3565b60405180910390f35b6102a1600480360381019061029c9190611b77565b61091e565b005b6102bd60048036038101906102b89190611d70565b61093e565b6040516102ca919061204c565b60405180910390f35b6102ed60048036038101906102e89190611b0a565b6109f0565b6040516102fa91906122a0565b60405180910390f35b61031d60048036038101906103189190611d27565b610aa8565b005b61033960048036038101906103349190611d70565b610b73565b60405161034691906120ce565b60405180910390f35b61036960048036038101906103649190611d27565b610c1f565b60405161037691906120b3565b60405180910390f35b61039960048036038101906103949190611d27565b610c54565b005b6103a3610c8e565b6040516103b0919061204c565b60405180910390f35b6103c1610cb4565b6040516103ce91906120ce565b60405180910390f35b6103f160048036038101906103ec9190611c4d565b610d46565b005b61040d60048036038101906104089190611bca565b610d5c565b005b610417610dbe565b60405161042491906122a0565b60405180910390f35b61044760048036038101906104429190611d70565b610dc8565b60405161045491906120ce565b60405180910390f35b61047760048036038101906104729190611d27565b610e6f565b005b610493600480360381019061048e9190611b37565b610ea9565b6040516104a091906120b3565b60405180910390f35b60007f80ac58cd000000000000000000000000000000000000000000000000000000007bffffffffffffffffffffffffffffffffffffffffffffffffffffffff1916827bffffffffffffffffffffffffffffffffffffffffffffffffffffffff1916148061057457507f5b5e139f000000000000000000000000000000000000000000000000000000007bffffffffffffffffffffffffffffffffffffffffffffffffffffffff1916827bffffffffffffffffffffffffffffffffffffffffffffffffffffffff1916145b80610584575061058382610f3d565b5b9050919050565b60606000805461059a90612526565b80601f01602080910402602001604051908101604052809291908181526020018280546105c690612526565b80156106135780601f106105e857610100808354040283529160200191610613565b820191906000526020600020905b8154815290600101906020018083116105f657829003601f168201915b5050505050905090565b600061062882610fa7565b610667576040517f08c379a000000000000000000000000000000000000000000000000000000000815260040161065e90612220565b60405180910390fd5b6004600083815260200190815260200160002060009054906101000a900473ffffffffffffffffffffffffffffffffffffffff169050919050565b60006106ad8261093e565b90508073ffffffffffffffffffffffffffffffffffffffff168373ffffffffffffffffffffffffffffffffffffffff16141561071e576040517f08c379a000000000000000000000000000000000000000000000000000000000815260040161071590612260565b60405180910390fd5b8073ffffffffffffffffffffffffffffffffffffffff1661073d611013565b73ffffffffffffffffffffffffffffffffffffffff16148061076c575061076b81610766611013565b610ea9565b5b6107ab576040517f08c379a00000000000000000000000000000000000000000000000000000000081526004016107a2906121c0565b60405180910390fd5b6107b5838361101b565b505050565b6060600080600884815481106107d3576107d2612690565b5b9060005260206000200180546107e890612526565b80601f016020809104026020016040519081016040528092919081815260200182805461081490612526565b80156108615780601f1061083657610100808354040283529160200191610861565b820191906000526020600020905b81548152906001019060200180831161084457829003601f168201915b50505050509050600061087382610c1f565b90508181935093505050915091565b60075481565b610899610893611013565b826110d4565b6108d8576040517f08c379a00000000000000000000000000000000000000000000000000000000081526004016108cf90612280565b60405180910390fd5b6108e38383836111b2565b505050565b6009818051602081018201805184825260208301602085012081835280955050505050506000915054906101000a900460ff1681565b61093983838360405180602001604052806000815250610d5c565b505050565b6000806002600084815260200190815260200160002060009054906101000a900473ffffffffffffffffffffffffffffffffffffffff169050600073ffffffffffffffffffffffffffffffffffffffff168173ffffffffffffffffffffffffffffffffffffffff1614156109e7576040517f08c379a00000000000000000000000000000000000000000000000000000000081526004016109de90612200565b60405180910390fd5b80915050919050565b60008073ffffffffffffffffffffffffffffffffffffffff168273ffffffffffffffffffffffffffffffffffffffff161415610a61576040517f08c379a0000000000000000000000000000000000000000000000000000000008152600401610a58906121e0565b60405180910390fd5b600360008373ffffffffffffffffffffffffffffffffffffffff1673ffffffffffffffffffffffffffffffffffffffff168152602001908152602001600020549050919050565b6000600982604051610aba9190612011565b908152602001604051809103902060006101000a81548160ff021916908315150217905550600881908060018154018082558091505060019003906000526020600020016000909190919091509080519060200190610b1a92919061191e565b50600160076000828254610b2e91906123b5565b925050819055507fa5ed9e6226c584326505694539c95cb0e3238ae09bcda5a65c00bbfdab1c666260075482604051610b689291906122bb565b60405180910390a150565b60088181548110610b8357600080fd5b906000526020600020016000915090508054610b9e90612526565b80601f0160208091040260200160405190810160405280929190818152602001828054610bca90612526565b8015610c175780601f10610bec57610100808354040283529160200191610c17565b820191906000526020600020905b815481529060010190602001808311610bfa57829003601f168201915b505050505081565b6000600982604051610c319190612011565b908152602001604051809103902060009054906101000a900460ff169050919050565b6000600982604051610c669190612011565b908152602001604051809103902060006101000a81548160ff02191690831515021790555050565b600660009054906101000a900473ffffffffffffffffffffffffffffffffffffffff1681565b606060018054610cc390612526565b80601f0160208091040260200160405190810160405280929190818152602001828054610cef90612526565b8015610d3c5780601f10610d1157610100808354040283529160200191610d3c565b820191906000526020600020905b815481529060010190602001808311610d1f57829003601f168201915b5050505050905090565b610d58610d51611013565b8383611419565b5050565b610d6d610d67611013565b836110d4565b610dac576040517f08c379a0000000000000000000000000000000000000000000000000000000008152600401610da390612280565b60405180910390fd5b610db884848484611586565b50505050565b6000600754905090565b6060610dd382610fa7565b610e12576040517f08c379a0000000000000000000000000000000000000000000000000000000008152600401610e0990612240565b60405180910390fd5b6000610e1c6115e2565b90506000815111610e3c5760405180602001604052806000815250610e67565b80610e46846115f9565b604051602001610e57929190612028565b6040516020818303038152906040525b915050919050565b6001600982604051610e819190612011565b908152602001604051809103902060006101000a81548160ff02191690831515021790555050565b6000600560008473ffffffffffffffffffffffffffffffffffffffff1673ffffffffffffffffffffffffffffffffffffffff16815260200190815260200160002060008373ffffffffffffffffffffffffffffffffffffffff1673ffffffffffffffffffffffffffffffffffffffff16815260200190815260200160002060009054906101000a900460ff16905092915050565b60007f01ffc9a7000000000000000000000000000000000000000000000000000000007bffffffffffffffffffffffffffffffffffffffffffffffffffffffff1916827bffffffffffffffffffffffffffffffffffffffffffffffffffffffff1916149050919050565b60008073ffffffffffffffffffffffffffffffffffffffff166002600084815260200190815260200160002060009054906101000a900473ffffffffffffffffffffffffffffffffffffffff1673ffffffffffffffffffffffffffffffffffffffff1614159050919050565b600033905090565b816004600083815260200190815260200160002060006101000a81548173ffffffffffffffffffffffffffffffffffffffff021916908373ffffffffffffffffffffffffffffffffffffffff160217905550808273ffffffffffffffffffffffffffffffffffffffff1661108e8361093e565b73ffffffffffffffffffffffffffffffffffffffff167f8c5be1e5ebec7d5bd14f71427d1e84f3dd0314c0f7b2291e5b200ac8c7c3b92560405160405180910390a45050565b60006110df82610fa7565b61111e576040517f08c379a0000000000000000000000000000000000000000000000000000000008152600401611115906121a0565b60405180910390fd5b60006111298361093e565b90508073ffffffffffffffffffffffffffffffffffffffff168473ffffffffffffffffffffffffffffffffffffffff16148061119857508373ffffffffffffffffffffffffffffffffffffffff166111808461061d565b73ffffffffffffffffffffffffffffffffffffffff16145b806111a957506111a88185610ea9565b5b91505092915050565b8273ffffffffffffffffffffffffffffffffffffffff166111d28261093e565b73ffffffffffffffffffffffffffffffffffffffff1614611228576040517f08c379a000000000000000000000000000000000000000000000000000000000815260040161121f90612140565b60405180910390fd5b600073ffffffffffffffffffffffffffffffffffffffff168273ffffffffffffffffffffffffffffffffffffffff161415611298576040517f08c379a000000000000000000000000000000000000000000000000000000000815260040161128f90612160565b60405180910390fd5b6112a383838361175a565b6112ae60008261101b565b6001600360008573ffffffffffffffffffffffffffffffffffffffff1673ffffffffffffffffffffffffffffffffffffffff16815260200190815260200160002060008282546112fe919061243c565b925050819055506001600360008473ffffffffffffffffffffffffffffffffffffffff1673ffffffffffffffffffffffffffffffffffffffff168152602001908152602001600020600082825461135591906123b5565b92505081905550816002600083815260200190815260200160002060006101000a81548173ffffffffffffffffffffffffffffffffffffffff021916908373ffffffffffffffffffffffffffffffffffffffff160217905550808273ffffffffffffffffffffffffffffffffffffffff168473ffffffffffffffffffffffffffffffffffffffff167fddf252ad1be2c89b69c2b068fc378daa952ba7f163c4a11628f55a4df523b3ef60405160405180910390a461141483838361175f565b505050565b8173ffffffffffffffffffffffffffffffffffffffff168373ffffffffffffffffffffffffffffffffffffffff161415611488576040517f08c379a000000000000000000000000000000000000000000000000000000000815260040161147f90612180565b60405180910390fd5b80600560008573ffffffffffffffffffffffffffffffffffffffff1673ffffffffffffffffffffffffffffffffffffffff16815260200190815260200160002060008473ffffffffffffffffffffffffffffffffffffffff1673ffffffffffffffffffffffffffffffffffffffff16815260200190815260200160002060006101000a81548160ff0219169083151502179055508173ffffffffffffffffffffffffffffffffffffffff168373ffffffffffffffffffffffffffffffffffffffff167f17307eab39ab6107e8899845ad3d59bd9653f200f220920489ca2b5937696c318360405161157991906120b3565b60405180910390a3505050565b6115918484846111b2565b61159d84848484611764565b6115dc576040517f08c379a00000000000000000000000000000000000000000000000000000000081526004016115d390612120565b60405180910390fd5b50505050565b606060405180602001604052806000815250905090565b60606000821415611641576040518060400160405280600181526020017f30000000000000000000000000000000000000000000000000000000000000008152509050611755565b600082905060005b6000821461167357808061165c90612589565b915050600a8261166c919061240b565b9150611649565b60008167ffffffffffffffff81111561168f5761168e6126bf565b5b6040519080825280601f01601f1916602001820160405280156116c15781602001600182028036833780820191505090505b5090505b6000851461174e576001826116da919061243c565b9150600a856116e991906125d2565b60306116f591906123b5565b60f81b81838151811061170b5761170a612690565b5b60200101907effffffffffffffffffffffffffffffffffffffffffffffffffffffffffffff1916908160001a905350600a85611747919061240b565b94506116c5565b8093505050505b919050565b505050565b505050565b60006117858473ffffffffffffffffffffffffffffffffffffffff166118fb565b156118ee578373ffffffffffffffffffffffffffffffffffffffff1663150b7a026117ae611013565b8786866040518563ffffffff1660e01b81526004016117d09493929190612067565b602060405180830381600087803b1580156117ea57600080fd5b505af192505050801561181b57506040513d601f19601f820116820180604052508101906118189190611cfa565b60015b61189e573d806000811461184b576040519150601f19603f3d011682016040523d82523d6000602084013e611850565b606091505b50600081511415611896576040517f08c379a000000000000000000000000000000000000000000000000000000000815260040161188d90612120565b60405180910390fd5b805181602001fd5b63150b7a0260e01b7bffffffffffffffffffffffffffffffffffffffffffffffffffffffff1916817bffffffffffffffffffffffffffffffffffffffffffffffffffffffff1916149150506118f3565b600190505b949350505050565b6000808273ffffffffffffffffffffffffffffffffffffffff163b119050919050565b82805461192a90612526565b90600052602060002090601f01602090048101928261194c5760008555611993565b82601f1061196557805160ff1916838001178555611993565b82800160010185558215611993579182015b82811115611992578251825591602001919060010190611977565b5b5090506119a091906119a4565b5090565b5b808211156119bd5760008160009055506001016119a5565b5090565b60006119d46119cf84612310565b6122eb565b9050828152602081018484840111156119f0576119ef6126f3565b5b6119fb8482856124e4565b509392505050565b6000611a16611a1184612341565b6122eb565b905082815260208101848484011115611a3257611a316126f3565b5b611a3d8482856124e4565b509392505050565b600081359050611a5481612aa1565b92915050565b600081359050611a6981612ab8565b92915050565b600081359050611a7e81612acf565b92915050565b600081519050611a9381612acf565b92915050565b600082601f830112611aae57611aad6126ee565b5b8135611abe8482602086016119c1565b91505092915050565b600082601f830112611adc57611adb6126ee565b5b8135611aec848260208601611a03565b91505092915050565b600081359050611b0481612ae6565b92915050565b600060208284031215611b2057611b1f6126fd565b5b6000611b2e84828501611a45565b91505092915050565b60008060408385031215611b4e57611b4d6126fd565b5b6000611b5c85828601611a45565b9250506020611b6d85828601611a45565b9150509250929050565b600080600060608486031215611b9057611b8f6126fd565b5b6000611b9e86828701611a45565b9350506020611baf86828701611a45565b9250506040611bc086828701611af5565b9150509250925092565b60008060008060808587031215611be457611be36126fd565b5b6000611bf287828801611a45565b9450506020611c0387828801611a45565b9350506040611c1487828801611af5565b925050606085013567ffffffffffffffff811115611c3557611c346126f8565b5b611c4187828801611a99565b91505092959194509250565b60008060408385031215611c6457611c636126fd565b5b6000611c7285828601611a45565b9250506020611c8385828601611a5a565b9150509250929050565b60008060408385031215611ca457611ca36126fd565b5b6000611cb285828601611a45565b9250506020611cc385828601611af5565b9150509250929050565b600060208284031215611ce357611ce26126fd565b5b6000611cf184828501611a6f565b91505092915050565b600060208284031215611d1057611d0f6126fd565b5b6000611d1e84828501611a84565b91505092915050565b600060208284031215611d3d57611d3c6126fd565b5b600082013567ffffffffffffffff811115611d5b57611d5a6126f8565b5b611d6784828501611ac7565b91505092915050565b600060208284031215611d8657611d856126fd565b5b6000611d9484828501611af5565b91505092915050565b611da681612470565b82525050565b611db581612482565b82525050565b6000611dc682612372565b611dd08185612388565b9350611de08185602086016124f3565b611de981612702565b840191505092915050565b6000611dff8261237d565b611e098185612399565b9350611e198185602086016124f3565b611e2281612702565b840191505092915050565b6000611e388261237d565b611e4281856123aa565b9350611e528185602086016124f3565b80840191505092915050565b6000611e6b603283612399565b9150611e7682612713565b604082019050919050565b6000611e8e602583612399565b9150611e9982612762565b604082019050919050565b6000611eb1602483612399565b9150611ebc826127b1565b604082019050919050565b6000611ed4601983612399565b9150611edf82612800565b602082019050919050565b6000611ef7602c83612399565b9150611f0282612829565b604082019050919050565b6000611f1a603883612399565b9150611f2582612878565b604082019050919050565b6000611f3d602a83612399565b9150611f48826128c7565b604082019050919050565b6000611f60602983612399565b9150611f6b82612916565b604082019050919050565b6000611f83602c83612399565b9150611f8e82612965565b604082019050919050565b6000611fa6602f83612399565b9150611fb1826129b4565b604082019050919050565b6000611fc9602183612399565b9150611fd482612a03565b604082019050919050565b6000611fec603183612399565b9150611ff782612a52565b604082019050919050565b61200b816124da565b82525050565b600061201d8284611e2d565b915081905092915050565b60006120348285611e2d565b91506120408284611e2d565b91508190509392505050565b60006020820190506120616000830184611d9d565b92915050565b600060808201905061207c6000830187611d9d565b6120896020830186611d9d565b6120966040830185612002565b81810360608301526120a88184611dbb565b905095945050505050565b60006020820190506120c86000830184611dac565b92915050565b600060208201905081810360008301526120e88184611df4565b905092915050565b6000604082019050818103600083015261210a8185611df4565b90506121196020830184611dac565b9392505050565b6000602082019050818103600083015261213981611e5e565b9050919050565b6000602082019050818103600083015261215981611e81565b9050919050565b6000602082019050818103600083015261217981611ea4565b9050919050565b6000602082019050818103600083015261219981611ec7565b9050919050565b600060208201905081810360008301526121b981611eea565b9050919050565b600060208201905081810360008301526121d981611f0d565b9050919050565b600060208201905081810360008301526121f981611f30565b9050919050565b6000602082019050818103600083015261221981611f53565b9050919050565b6000602082019050818103600083015261223981611f76565b9050919050565b6000602082019050818103600083015261225981611f99565b9050919050565b6000602082019050818103600083015261227981611fbc565b9050919050565b6000602082019050818103600083015261229981611fdf565b9050919050565b60006020820190506122b56000830184612002565b92915050565b60006040820190506122d06000830185612002565b81810360208301526122e28184611df4565b90509392505050565b60006122f5612306565b90506123018282612558565b919050565b6000604051905090565b600067ffffffffffffffff82111561232b5761232a6126bf565b5b61233482612702565b9050602081019050919050565b600067ffffffffffffffff82111561235c5761235b6126bf565b5b61236582612702565b9050602081019050919050565b600081519050919050565b600081519050919050565b600082825260208201905092915050565b600082825260208201905092915050565b600081905092915050565b60006123c0826124da565b91506123cb836124da565b9250827fffffffffffffffffffffffffffffffffffffffffffffffffffffffffffffffff03821115612400576123ff612603565b5b828201905092915050565b6000612416826124da565b9150612421836124da565b92508261243157612430612632565b5b828204905092915050565b6000612447826124da565b9150612452836124da565b92508282101561246557612464612603565b5b828203905092915050565b600061247b826124ba565b9050919050565b60008115159050919050565b60007fffffffff0000000000000000000000000000000000000000000000000000000082169050919050565b600073ffffffffffffffffffffffffffffffffffffffff82169050919050565b6000819050919050565b82818337600083830152505050565b60005b838110156125115780820151818401526020810190506124f6565b83811115612520576000848401525b50505050565b6000600282049050600182168061253e57607f821691505b6020821081141561255257612551612661565b5b50919050565b61256182612702565b810181811067ffffffffffffffff821117156125805761257f6126bf565b5b80604052505050565b6000612594826124da565b91507fffffffffffffffffffffffffffffffffffffffffffffffffffffffffffffffff8214156125c7576125c6612603565b5b600182019050919050565b60006125dd826124da565b91506125e8836124da565b9250826125f8576125f7612632565b5b828206905092915050565b7f4e487b7100000000000000000000000000000000000000000000000000000000600052601160045260246000fd5b7f4e487b7100000000000000000000000000000000000000000000000000000000600052601260045260246000fd5b7f4e487b7100000000000000000000000000000000000000000000000000000000600052602260045260246000fd5b7f4e487b7100000000000000000000000000000000000000000000000000000000600052603260045260246000fd5b7f4e487b7100000000000000000000000000000000000000000000000000000000600052604160045260246000fd5b600080fd5b600080fd5b600080fd5b600080fd5b6000601f19601f8301169050919050565b7f4552433732313a207472616e7366657220746f206e6f6e20455243373231526560008201527f63656976657220696d706c656d656e7465720000000000000000000000000000602082015250565b7f4552433732313a207472616e736665722066726f6d20696e636f72726563742060008201527f6f776e6572000000000000000000000000000000000000000000000000000000602082015250565b7f4552433732313a207472616e7366657220746f20746865207a65726f2061646460008201527f7265737300000000000000000000000000000000000000000000000000000000602082015250565b7f4552433732313a20617070726f766520746f2063616c6c657200000000000000600082015250565b7f4552433732313a206f70657261746f7220717565727920666f72206e6f6e657860008201527f697374656e7420746f6b656e0000000000000000000000000000000000000000602082015250565b7f4552433732313a20617070726f76652063616c6c6572206973206e6f74206f7760008201527f6e6572206e6f7220617070726f76656420666f7220616c6c0000000000000000602082015250565b7f4552433732313a2062616c616e636520717565727920666f7220746865207a6560008201527f726f206164647265737300000000000000000000000000000000000000000000602082015250565b7f4552433732313a206f776e657220717565727920666f72206e6f6e657869737460008201527f656e7420746f6b656e0000000000000000000000000000000000000000000000602082015250565b7f4552433732313a20617070726f76656420717565727920666f72206e6f6e657860008201527f697374656e7420746f6b656e0000000000000000000000000000000000000000602082015250565b7f4552433732314d657461646174613a2055524920717565727920666f72206e6f60008201527f6e6578697374656e7420746f6b656e0000000000000000000000000000000000602082015250565b7f4552433732313a20617070726f76616c20746f2063757272656e74206f776e6560008201527f7200000000000000000000000000000000000000000000000000000000000000602082015250565b7f4552433732313a207472616e736665722063616c6c6572206973206e6f74206f60008201527f776e6572206e6f7220617070726f766564000000000000000000000000000000602082015250565b612aaa81612470565b8114612ab557600080fd5b50565b612ac181612482565b8114612acc57600080fd5b50565b612ad88161248e565b8114612ae357600080fd5b50565b612aef816124da565b8114612afa57600080fd5b5056fea26469706673582212207ab1e49b9245915077fd7c4d05ab7c2253c34615fce6fbf293815b5d09222b1b64736f6c63430008070033",
  "immutableReferences": {},
  "source": "// SPDX-License-Identifier: MIT\npragma solidity ^0.8.7;\nimport \"@openzeppelin/contracts/token/ERC721/ERC721.sol\";\n\ncontract LiliansList is ERC721 {\n    address public owner;\n    uint public length;\n    string[] public taskNames;\n    event TaskCreated (\n        uint256 taskId,\n        string taskName\n    );\n    \n    mapping(string => bool) public liliansVeryPublicWeb3ToDoList;\n   \n    // ideally make this a NFT for people to create their own todo lists lmao\n    constructor( string [] memory toDoItems) ERC721(\"LiliansList\", \"LLL\") {\n        uint i = 0;\n        \n        while(i < toDoItems.length){\n            liliansVeryPublicWeb3ToDoList[toDoItems[i]] = false;\n            taskNames.push(toDoItems[i]);\n            i++;\n        }\n        length = toDoItems.length;\n    \n    }\n\n    function setToDone(string memory name) public {\n        liliansVeryPublicWeb3ToDoList[name] = true;\n    }\n\n    function setUndone(string memory name) public {\n        liliansVeryPublicWeb3ToDoList[name] = false;\n    }\n\n    function getIsDone(string memory name) public view returns (bool) {\n        return liliansVeryPublicWeb3ToDoList[name];\n    }\n\n    function addToList(string memory name) public {\n        liliansVeryPublicWeb3ToDoList[name] = false;\n        taskNames.push(name);\n        length += 1;\n        emit TaskCreated(\n            length,\n            name\n        );\n    }\n    \n    function getLength() public view returns (uint) {\n        return length;\n    }\n\n    function getTask(uint taskId) public view returns (string memory, bool) {\n        string memory taskName = taskNames[taskId];\n        bool isDone = getIsDone(taskName);\n        return (taskName, isDone);\n    }\n}",
  "sourcePath": "/Users/lilian/Dev/really-expensive-to-do-list-on-web3/contracts/LiliansList.sol",
  "compiler": {
    "name": "solc",
    "version": "0.8.7+commit.e28d00a7.Emscripten.clang"
  },
  "schemaVersion": "3.3.4",
  "updatedAt": "2022-04-12T15:55:13.804Z",
  "networkType": "ethereum",
  "devdoc": {
    "kind": "dev",
    "methods": {
      "approve(address,uint256)": {
        "details": "See {IERC721-approve}."
      },
      "balanceOf(address)": {
        "details": "See {IERC721-balanceOf}."
      },
      "getApproved(uint256)": {
        "details": "See {IERC721-getApproved}."
      },
      "isApprovedForAll(address,address)": {
        "details": "See {IERC721-isApprovedForAll}."
      },
      "name()": {
        "details": "See {IERC721Metadata-name}."
      },
      "ownerOf(uint256)": {
        "details": "See {IERC721-ownerOf}."
      },
      "safeTransferFrom(address,address,uint256)": {
        "details": "See {IERC721-safeTransferFrom}."
      },
      "safeTransferFrom(address,address,uint256,bytes)": {
        "details": "See {IERC721-safeTransferFrom}."
      },
      "setApprovalForAll(address,bool)": {
        "details": "See {IERC721-setApprovalForAll}."
      },
      "supportsInterface(bytes4)": {
        "details": "See {IERC165-supportsInterface}."
      },
      "symbol()": {
        "details": "See {IERC721Metadata-symbol}."
      },
      "tokenURI(uint256)": {
        "details": "See {IERC721Metadata-tokenURI}."
      },
      "transferFrom(address,address,uint256)": {
        "details": "See {IERC721-transferFrom}."
      }
    },
    "version": 1
  },
  "userdoc": {
    "kind": "user",
    "methods": {},
    "version": 1
  }
}