{
  "contractName": "LiliansList",
  "abi": [
    {
      "inputs": [
        {
          "internalType": "string[]",
          "name": "toDoItems",
          "type": "string[]"
        }
      ],
      "stateMutability": "nonpayable",
      "type": "constructor"
    },
    {
      "anonymous": false,
      "inputs": [
        {
          "indexed": true,
          "internalType": "address",
          "name": "owner",
          "type": "address"
        },
        {
          "indexed": true,
          "internalType": "address",
          "name": "approved",
          "type": "address"
        },
        {
          "indexed": true,
          "internalType": "uint256",
          "name": "tokenId",
          "type": "uint256"
        }
      ],
      "name": "Approval",
      "type": "event"
    },
    {
      "anonymous": false,
      "inputs": [
        {
          "indexed": true,
          "internalType": "address",
          "name": "owner",
          "type": "address"
        },
        {
          "indexed": true,
          "internalType": "address",
          "name": "operator",
          "type": "address"
        },
        {
          "indexed": false,
          "internalType": "bool",
          "name": "approved",
          "type": "bool"
        }
      ],
      "name": "ApprovalForAll",
      "type": "event"
    },
    {
      "anonymous": false,
      "inputs": [
        {
          "indexed": true,
          "internalType": "address",
          "name": "from",
          "type": "address"
        },
        {
          "indexed": true,
          "internalType": "address",
          "name": "to",
          "type": "address"
        },
        {
          "indexed": true,
          "internalType": "uint256",
          "name": "tokenId",
          "type": "uint256"
        }
      ],
      "name": "Transfer",
      "type": "event"
    },
    {
      "inputs": [
        {
          "internalType": "address",
          "name": "to",
          "type": "address"
        },
        {
          "internalType": "uint256",
          "name": "tokenId",
          "type": "uint256"
        }
      ],
      "name": "approve",
      "outputs": [],
      "stateMutability": "nonpayable",
      "type": "function"
    },
    {
      "inputs": [
        {
          "internalType": "address",
          "name": "owner",
          "type": "address"
        }
      ],
      "name": "balanceOf",
      "outputs": [
        {
          "internalType": "uint256",
          "name": "",
          "type": "uint256"
        }
      ],
      "stateMutability": "view",
      "type": "function",
      "constant": true
    },
    {
      "inputs": [
        {
          "internalType": "uint256",
          "name": "tokenId",
          "type": "uint256"
        }
      ],
      "name": "getApproved",
      "outputs": [
        {
          "internalType": "address",
          "name": "",
          "type": "address"
        }
      ],
      "stateMutability": "view",
      "type": "function",
      "constant": true
    },
    {
      "inputs": [
        {
          "internalType": "address",
          "name": "owner",
          "type": "address"
        },
        {
          "internalType": "address",
          "name": "operator",
          "type": "address"
        }
      ],
      "name": "isApprovedForAll",
      "outputs": [
        {
          "internalType": "bool",
          "name": "",
          "type": "bool"
        }
      ],
      "stateMutability": "view",
      "type": "function",
      "constant": true
    },
    {
      "inputs": [
        {
          "internalType": "string",
          "name": "",
          "type": "string"
        }
      ],
      "name": "liliansVeryPublicWeb3ToDoList",
      "outputs": [
        {
          "internalType": "bool",
          "name": "",
          "type": "bool"
        }
      ],
      "stateMutability": "view",
      "type": "function",
      "constant": true
    },
    {
      "inputs": [],
      "name": "name",
      "outputs": [
        {
          "internalType": "string",
          "name": "",
          "type": "string"
        }
      ],
      "stateMutability": "view",
      "type": "function",
      "constant": true
    },
    {
      "inputs": [],
      "name": "owner",
      "outputs": [
        {
          "internalType": "address",
          "name": "",
          "type": "address"
        }
      ],
      "stateMutability": "view",
      "type": "function",
      "constant": true
    },
    {
      "inputs": [
        {
          "internalType": "uint256",
          "name": "tokenId",
          "type": "uint256"
        }
      ],
      "name": "ownerOf",
      "outputs": [
        {
          "internalType": "address",
          "name": "",
          "type": "address"
        }
      ],
      "stateMutability": "view",
      "type": "function",
      "constant": true
    },
    {
      "inputs": [
        {
          "internalType": "address",
          "name": "from",
          "type": "address"
        },
        {
          "internalType": "address",
          "name": "to",
          "type": "address"
        },
        {
          "internalType": "uint256",
          "name": "tokenId",
          "type": "uint256"
        }
      ],
      "name": "safeTransferFrom",
      "outputs": [],
      "stateMutability": "nonpayable",
      "type": "function"
    },
    {
      "inputs": [
        {
          "internalType": "address",
          "name": "from",
          "type": "address"
        },
        {
          "internalType": "address",
          "name": "to",
          "type": "address"
        },
        {
          "internalType": "uint256",
          "name": "tokenId",
          "type": "uint256"
        },
        {
          "internalType": "bytes",
          "name": "_data",
          "type": "bytes"
        }
      ],
      "name": "safeTransferFrom",
      "outputs": [],
      "stateMutability": "nonpayable",
      "type": "function"
    },
    {
      "inputs": [
        {
          "internalType": "address",
          "name": "operator",
          "type": "address"
        },
        {
          "internalType": "bool",
          "name": "approved",
          "type": "bool"
        }
      ],
      "name": "setApprovalForAll",
      "outputs": [],
      "stateMutability": "nonpayable",
      "type": "function"
    },
    {
      "inputs": [
        {
          "internalType": "bytes4",
          "name": "interfaceId",
          "type": "bytes4"
        }
      ],
      "name": "supportsInterface",
      "outputs": [
        {
          "internalType": "bool",
          "name": "",
          "type": "bool"
        }
      ],
      "stateMutability": "view",
      "type": "function",
      "constant": true
    },
    {
      "inputs": [],
      "name": "symbol",
      "outputs": [
        {
          "internalType": "string",
          "name": "",
          "type": "string"
        }
      ],
      "stateMutability": "view",
      "type": "function",
      "constant": true
    },
    {
      "inputs": [
        {
          "internalType": "uint256",
          "name": "",
          "type": "uint256"
        }
      ],
      "name": "taskNames",
      "outputs": [
        {
          "internalType": "string",
          "name": "",
          "type": "string"
        }
      ],
      "stateMutability": "view",
      "type": "function",
      "constant": true
    },
    {
      "inputs": [
        {
          "internalType": "uint256",
          "name": "tokenId",
          "type": "uint256"
        }
      ],
      "name": "tokenURI",
      "outputs": [
        {
          "internalType": "string",
          "name": "",
          "type": "string"
        }
      ],
      "stateMutability": "view",
      "type": "function",
      "constant": true
    },
    {
      "inputs": [
        {
          "internalType": "address",
          "name": "from",
          "type": "address"
        },
        {
          "internalType": "address",
          "name": "to",
          "type": "address"
        },
        {
          "internalType": "uint256",
          "name": "tokenId",
          "type": "uint256"
        }
      ],
      "name": "transferFrom",
      "outputs": [],
      "stateMutability": "nonpayable",
      "type": "function"
    },
    {
      "inputs": [
        {
          "internalType": "string",
          "name": "name",
          "type": "string"
        }
      ],
      "name": "setToDone",
      "outputs": [],
      "stateMutability": "nonpayable",
      "type": "function"
    },
    {
      "inputs": [
        {
          "internalType": "string",
          "name": "name",
          "type": "string"
        }
      ],
      "name": "setUndone",
      "outputs": [],
      "stateMutability": "nonpayable",
      "type": "function"
    },
    {
      "inputs": [
        {
          "internalType": "string",
          "name": "name",
          "type": "string"
        }
      ],
      "name": "getIsDone",
      "outputs": [
        {
          "internalType": "bool",
          "name": "",
          "type": "bool"
        }
      ],
      "stateMutability": "view",
      "type": "function",
      "constant": true
    }
  ],
  "bytecode": "0x60806040523480156200001157600080fd5b5060405162002ebd38038062002ebd8339818101604052810190620000379190620003b0565b6040518060400160405280600b81526020017f4c696c69616e734c6973740000000000000000000000000000000000000000008152506040518060400160405280600381526020017f4c4c4c00000000000000000000000000000000000000000000000000000000008152508160009080519060200190620000bb929190620001b3565b508060019080519060200190620000d4929190620001b3565b50505060005b8151811015620001ab5760006008838381518110620000fe57620000fd6200064d565b5b602002602001015160405162000115919062000438565b908152602001604051809103902060006101000a81548160ff02191690831515021790555060078282815181106200015257620001516200064d565b5b602002602001015190806001815401808255809150506001900390600052602060002001600090919091909150908051906020019062000194929190620001b3565b508080620001a290620005a1565b915050620000da565b5050620006d5565b828054620001c19062000535565b90600052602060002090601f016020900481019282620001e5576000855562000231565b82601f106200020057805160ff191683800117855562000231565b8280016001018555821562000231579182015b828111156200023057825182559160200191906001019062000213565b5b50905062000240919062000244565b5090565b5b808211156200025f57600081600090555060010162000245565b5090565b60006200027a62000274846200047a565b62000451565b90508083825260208201905082856020860282011115620002a0576200029f620006b0565b5b60005b85811015620002f557815167ffffffffffffffff811115620002ca57620002c9620006ab565b5b808601620002d989826200037d565b85526020850194506020840193505050600181019050620002a3565b5050509392505050565b6000620003166200031084620004a9565b62000451565b905082815260208101848484011115620003355762000334620006b5565b5b62000342848285620004ff565b509392505050565b600082601f830112620003625762000361620006ab565b5b81516200037484826020860162000263565b91505092915050565b600082601f830112620003955762000394620006ab565b5b8151620003a7848260208601620002ff565b91505092915050565b600060208284031215620003c957620003c8620006bf565b5b600082015167ffffffffffffffff811115620003ea57620003e9620006ba565b5b620003f8848285016200034a565b91505092915050565b60006200040e82620004df565b6200041a8185620004ea565b93506200042c818560208601620004ff565b80840191505092915050565b600062000446828462000401565b915081905092915050565b60006200045d62000470565b90506200046b82826200056b565b919050565b6000604051905090565b600067ffffffffffffffff8211156200049857620004976200067c565b5b602082029050602081019050919050565b600067ffffffffffffffff821115620004c757620004c66200067c565b5b620004d282620006c4565b9050602081019050919050565b600081519050919050565b600081905092915050565b6000819050919050565b60005b838110156200051f57808201518184015260208101905062000502565b838111156200052f576000848401525b50505050565b600060028204905060018216806200054e57607f821691505b602082108114156200056557620005646200061e565b5b50919050565b6200057682620006c4565b810181811067ffffffffffffffff821117156200059857620005976200067c565b5b80604052505050565b6000620005ae82620004f5565b91507fffffffffffffffffffffffffffffffffffffffffffffffffffffffffffffffff821415620005e457620005e3620005ef565b5b600182019050919050565b7f4e487b7100000000000000000000000000000000000000000000000000000000600052601160045260246000fd5b7f4e487b7100000000000000000000000000000000000000000000000000000000600052602260045260246000fd5b7f4e487b7100000000000000000000000000000000000000000000000000000000600052603260045260246000fd5b7f4e487b7100000000000000000000000000000000000000000000000000000000600052604160045260246000fd5b600080fd5b600080fd5b600080fd5b600080fd5b600080fd5b6000601f19601f8301169050919050565b6127d880620006e56000396000f3fe608060405234801561001057600080fd5b50600436106101215760003560e01c80637b47fad8116100ad578063a22cb46511610071578063a22cb46514610340578063b88d4fde1461035c578063c87b56dd14610378578063cb84b6f8146103a8578063e985e9c5146103c457610121565b80637b47fad814610288578063844de261146102b85780638c6074a5146102e85780638da5cb5b1461030457806395d89b411461032257610121565b806323b872dd116100f457806323b872dd146101c057806335ecfa99146101dc57806342842e0e1461020c5780636352211e1461022857806370a082311461025857610121565b806301ffc9a71461012657806306fdde0314610156578063081812fc14610174578063095ea7b3146101a4575b600080fd5b610140600480360381019061013b91906119d2565b6103f4565b60405161014d9190611db8565b60405180910390f35b61015e6104d6565b60405161016b9190611dd3565b60405180910390f35b61018e60048036038101906101899190611a75565b610568565b60405161019b9190611d51565b60405180910390f35b6101be60048036038101906101b99190611992565b6105ed565b005b6101da60048036038101906101d5919061187c565b610705565b005b6101f660048036038101906101f19190611a2c565b610765565b6040516102039190611db8565b60405180910390f35b6102266004803603810190610221919061187c565b61079b565b005b610242600480360381019061023d9190611a75565b6107bb565b60405161024f9190611d51565b60405180910390f35b610272600480360381019061026d919061180f565b61086d565b60405161027f9190611f75565b60405180910390f35b6102a2600480360381019061029d9190611a75565b610925565b6040516102af9190611dd3565b60405180910390f35b6102d260048036038101906102cd9190611a2c565b6109d1565b6040516102df9190611db8565b60405180910390f35b61030260048036038101906102fd9190611a2c565b610a06565b005b61030c610a40565b6040516103199190611d51565b60405180910390f35b61032a610a66565b6040516103379190611dd3565b60405180910390f35b61035a60048036038101906103559190611952565b610af8565b005b610376600480360381019061037191906118cf565b610b0e565b005b610392600480360381019061038d9190611a75565b610b70565b60405161039f9190611dd3565b60405180910390f35b6103c260048036038101906103bd9190611a2c565b610c17565b005b6103de60048036038101906103d9919061183c565b610c51565b6040516103eb9190611db8565b60405180910390f35b60007f80ac58cd000000000000000000000000000000000000000000000000000000007bffffffffffffffffffffffffffffffffffffffffffffffffffffffff1916827bffffffffffffffffffffffffffffffffffffffffffffffffffffffff191614806104bf57507f5b5e139f000000000000000000000000000000000000000000000000000000007bffffffffffffffffffffffffffffffffffffffffffffffffffffffff1916827bffffffffffffffffffffffffffffffffffffffffffffffffffffffff1916145b806104cf57506104ce82610ce5565b5b9050919050565b6060600080546104e5906121cb565b80601f0160208091040260200160405190810160405280929190818152602001828054610511906121cb565b801561055e5780601f106105335761010080835404028352916020019161055e565b820191906000526020600020905b81548152906001019060200180831161054157829003601f168201915b5050505050905090565b600061057382610d4f565b6105b2576040517f08c379a00000000000000000000000000000000000000000000000000000000081526004016105a990611ef5565b60405180910390fd5b6004600083815260200190815260200160002060009054906101000a900473ffffffffffffffffffffffffffffffffffffffff169050919050565b60006105f8826107bb565b90508073ffffffffffffffffffffffffffffffffffffffff168373ffffffffffffffffffffffffffffffffffffffff161415610669576040517f08c379a000000000000000000000000000000000000000000000000000000000815260040161066090611f35565b60405180910390fd5b8073ffffffffffffffffffffffffffffffffffffffff16610688610dbb565b73ffffffffffffffffffffffffffffffffffffffff1614806106b757506106b6816106b1610dbb565b610c51565b5b6106f6576040517f08c379a00000000000000000000000000000000000000000000000000000000081526004016106ed90611e95565b60405180910390fd5b6107008383610dc3565b505050565b610716610710610dbb565b82610e7c565b610755576040517f08c379a000000000000000000000000000000000000000000000000000000000815260040161074c90611f55565b60405180910390fd5b610760838383610f5a565b505050565b6008818051602081018201805184825260208301602085012081835280955050505050506000915054906101000a900460ff1681565b6107b683838360405180602001604052806000815250610b0e565b505050565b6000806002600084815260200190815260200160002060009054906101000a900473ffffffffffffffffffffffffffffffffffffffff169050600073ffffffffffffffffffffffffffffffffffffffff168173ffffffffffffffffffffffffffffffffffffffff161415610864576040517f08c379a000000000000000000000000000000000000000000000000000000000815260040161085b90611ed5565b60405180910390fd5b80915050919050565b60008073ffffffffffffffffffffffffffffffffffffffff168273ffffffffffffffffffffffffffffffffffffffff1614156108de576040517f08c379a00000000000000000000000000000000000000000000000000000000081526004016108d590611eb5565b60405180910390fd5b600360008373ffffffffffffffffffffffffffffffffffffffff1673ffffffffffffffffffffffffffffffffffffffff168152602001908152602001600020549050919050565b6007818154811061093557600080fd5b906000526020600020016000915090508054610950906121cb565b80601f016020809104026020016040519081016040528092919081815260200182805461097c906121cb565b80156109c95780601f1061099e576101008083540402835291602001916109c9565b820191906000526020600020905b8154815290600101906020018083116109ac57829003601f168201915b505050505081565b60006008826040516109e39190611d16565b908152602001604051809103902060009054906101000a900460ff169050919050565b6000600882604051610a189190611d16565b908152602001604051809103902060006101000a81548160ff02191690831515021790555050565b600660009054906101000a900473ffffffffffffffffffffffffffffffffffffffff1681565b606060018054610a75906121cb565b80601f0160208091040260200160405190810160405280929190818152602001828054610aa1906121cb565b8015610aee5780601f10610ac357610100808354040283529160200191610aee565b820191906000526020600020905b815481529060010190602001808311610ad157829003601f168201915b5050505050905090565b610b0a610b03610dbb565b83836111c1565b5050565b610b1f610b19610dbb565b83610e7c565b610b5e576040517f08c379a0000000000000000000000000000000000000000000000000000000008152600401610b5590611f55565b60405180910390fd5b610b6a8484848461132e565b50505050565b6060610b7b82610d4f565b610bba576040517f08c379a0000000000000000000000000000000000000000000000000000000008152600401610bb190611f15565b60405180910390fd5b6000610bc461138a565b90506000815111610be45760405180602001604052806000815250610c0f565b80610bee846113a1565b604051602001610bff929190611d2d565b6040516020818303038152906040525b915050919050565b6001600882604051610c299190611d16565b908152602001604051809103902060006101000a81548160ff02191690831515021790555050565b6000600560008473ffffffffffffffffffffffffffffffffffffffff1673ffffffffffffffffffffffffffffffffffffffff16815260200190815260200160002060008373ffffffffffffffffffffffffffffffffffffffff1673ffffffffffffffffffffffffffffffffffffffff16815260200190815260200160002060009054906101000a900460ff16905092915050565b60007f01ffc9a7000000000000000000000000000000000000000000000000000000007bffffffffffffffffffffffffffffffffffffffffffffffffffffffff1916827bffffffffffffffffffffffffffffffffffffffffffffffffffffffff1916149050919050565b60008073ffffffffffffffffffffffffffffffffffffffff166002600084815260200190815260200160002060009054906101000a900473ffffffffffffffffffffffffffffffffffffffff1673ffffffffffffffffffffffffffffffffffffffff1614159050919050565b600033905090565b816004600083815260200190815260200160002060006101000a81548173ffffffffffffffffffffffffffffffffffffffff021916908373ffffffffffffffffffffffffffffffffffffffff160217905550808273ffffffffffffffffffffffffffffffffffffffff16610e36836107bb565b73ffffffffffffffffffffffffffffffffffffffff167f8c5be1e5ebec7d5bd14f71427d1e84f3dd0314c0f7b2291e5b200ac8c7c3b92560405160405180910390a45050565b6000610e8782610d4f565b610ec6576040517f08c379a0000000000000000000000000000000000000000000000000000000008152600401610ebd90611e75565b60405180910390fd5b6000610ed1836107bb565b90508073ffffffffffffffffffffffffffffffffffffffff168473ffffffffffffffffffffffffffffffffffffffff161480610f4057508373ffffffffffffffffffffffffffffffffffffffff16610f2884610568565b73ffffffffffffffffffffffffffffffffffffffff16145b80610f515750610f508185610c51565b5b91505092915050565b8273ffffffffffffffffffffffffffffffffffffffff16610f7a826107bb565b73ffffffffffffffffffffffffffffffffffffffff1614610fd0576040517f08c379a0000000000000000000000000000000000000000000000000000000008152600401610fc790611e15565b60405180910390fd5b600073ffffffffffffffffffffffffffffffffffffffff168273ffffffffffffffffffffffffffffffffffffffff161415611040576040517f08c379a000000000000000000000000000000000000000000000000000000000815260040161103790611e35565b60405180910390fd5b61104b838383611502565b611056600082610dc3565b6001600360008573ffffffffffffffffffffffffffffffffffffffff1673ffffffffffffffffffffffffffffffffffffffff16815260200190815260200160002060008282546110a691906120e1565b925050819055506001600360008473ffffffffffffffffffffffffffffffffffffffff1673ffffffffffffffffffffffffffffffffffffffff16815260200190815260200160002060008282546110fd919061205a565b92505081905550816002600083815260200190815260200160002060006101000a81548173ffffffffffffffffffffffffffffffffffffffff021916908373ffffffffffffffffffffffffffffffffffffffff160217905550808273ffffffffffffffffffffffffffffffffffffffff168473ffffffffffffffffffffffffffffffffffffffff167fddf252ad1be2c89b69c2b068fc378daa952ba7f163c4a11628f55a4df523b3ef60405160405180910390a46111bc838383611507565b505050565b8173ffffffffffffffffffffffffffffffffffffffff168373ffffffffffffffffffffffffffffffffffffffff161415611230576040517f08c379a000000000000000000000000000000000000000000000000000000000815260040161122790611e55565b60405180910390fd5b80600560008573ffffffffffffffffffffffffffffffffffffffff1673ffffffffffffffffffffffffffffffffffffffff16815260200190815260200160002060008473ffffffffffffffffffffffffffffffffffffffff1673ffffffffffffffffffffffffffffffffffffffff16815260200190815260200160002060006101000a81548160ff0219169083151502179055508173ffffffffffffffffffffffffffffffffffffffff168373ffffffffffffffffffffffffffffffffffffffff167f17307eab39ab6107e8899845ad3d59bd9653f200f220920489ca2b5937696c31836040516113219190611db8565b60405180910390a3505050565b611339848484610f5a565b6113458484848461150c565b611384576040517f08c379a000000000000000000000000000000000000000000000000000000000815260040161137b90611df5565b60405180910390fd5b50505050565b606060405180602001604052806000815250905090565b606060008214156113e9576040518060400160405280600181526020017f300000000000000000000000000000000000000000000000000000000000000081525090506114fd565b600082905060005b6000821461141b5780806114049061222e565b915050600a8261141491906120b0565b91506113f1565b60008167ffffffffffffffff81111561143757611436612364565b5b6040519080825280601f01601f1916602001820160405280156114695781602001600182028036833780820191505090505b5090505b600085146114f65760018261148291906120e1565b9150600a856114919190612277565b603061149d919061205a565b60f81b8183815181106114b3576114b2612335565b5b60200101907effffffffffffffffffffffffffffffffffffffffffffffffffffffffffffff1916908160001a905350600a856114ef91906120b0565b945061146d565b8093505050505b919050565b505050565b505050565b600061152d8473ffffffffffffffffffffffffffffffffffffffff166116a3565b15611696578373ffffffffffffffffffffffffffffffffffffffff1663150b7a02611556610dbb565b8786866040518563ffffffff1660e01b81526004016115789493929190611d6c565b602060405180830381600087803b15801561159257600080fd5b505af19250505080156115c357506040513d601f19601f820116820180604052508101906115c091906119ff565b60015b611646573d80600081146115f3576040519150601f19603f3d011682016040523d82523d6000602084013e6115f8565b606091505b5060008151141561163e576040517f08c379a000000000000000000000000000000000000000000000000000000000815260040161163590611df5565b60405180910390fd5b805181602001fd5b63150b7a0260e01b7bffffffffffffffffffffffffffffffffffffffffffffffffffffffff1916817bffffffffffffffffffffffffffffffffffffffffffffffffffffffff19161491505061169b565b600190505b949350505050565b6000808273ffffffffffffffffffffffffffffffffffffffff163b119050919050565b60006116d96116d484611fb5565b611f90565b9050828152602081018484840111156116f5576116f4612398565b5b611700848285612189565b509392505050565b600061171b61171684611fe6565b611f90565b90508281526020810184848401111561173757611736612398565b5b611742848285612189565b509392505050565b60008135905061175981612746565b92915050565b60008135905061176e8161275d565b92915050565b60008135905061178381612774565b92915050565b60008151905061179881612774565b92915050565b600082601f8301126117b3576117b2612393565b5b81356117c38482602086016116c6565b91505092915050565b600082601f8301126117e1576117e0612393565b5b81356117f1848260208601611708565b91505092915050565b6000813590506118098161278b565b92915050565b600060208284031215611825576118246123a2565b5b60006118338482850161174a565b91505092915050565b60008060408385031215611853576118526123a2565b5b60006118618582860161174a565b92505060206118728582860161174a565b9150509250929050565b600080600060608486031215611895576118946123a2565b5b60006118a38682870161174a565b93505060206118b48682870161174a565b92505060406118c5868287016117fa565b9150509250925092565b600080600080608085870312156118e9576118e86123a2565b5b60006118f78782880161174a565b94505060206119088782880161174a565b9350506040611919878288016117fa565b925050606085013567ffffffffffffffff81111561193a5761193961239d565b5b6119468782880161179e565b91505092959194509250565b60008060408385031215611969576119686123a2565b5b60006119778582860161174a565b92505060206119888582860161175f565b9150509250929050565b600080604083850312156119a9576119a86123a2565b5b60006119b78582860161174a565b92505060206119c8858286016117fa565b9150509250929050565b6000602082840312156119e8576119e76123a2565b5b60006119f684828501611774565b91505092915050565b600060208284031215611a1557611a146123a2565b5b6000611a2384828501611789565b91505092915050565b600060208284031215611a4257611a416123a2565b5b600082013567ffffffffffffffff811115611a6057611a5f61239d565b5b611a6c848285016117cc565b91505092915050565b600060208284031215611a8b57611a8a6123a2565b5b6000611a99848285016117fa565b91505092915050565b611aab81612115565b82525050565b611aba81612127565b82525050565b6000611acb82612017565b611ad5818561202d565b9350611ae5818560208601612198565b611aee816123a7565b840191505092915050565b6000611b0482612022565b611b0e818561203e565b9350611b1e818560208601612198565b611b27816123a7565b840191505092915050565b6000611b3d82612022565b611b47818561204f565b9350611b57818560208601612198565b80840191505092915050565b6000611b7060328361203e565b9150611b7b826123b8565b604082019050919050565b6000611b9360258361203e565b9150611b9e82612407565b604082019050919050565b6000611bb660248361203e565b9150611bc182612456565b604082019050919050565b6000611bd960198361203e565b9150611be4826124a5565b602082019050919050565b6000611bfc602c8361203e565b9150611c07826124ce565b604082019050919050565b6000611c1f60388361203e565b9150611c2a8261251d565b604082019050919050565b6000611c42602a8361203e565b9150611c4d8261256c565b604082019050919050565b6000611c6560298361203e565b9150611c70826125bb565b604082019050919050565b6000611c88602c8361203e565b9150611c938261260a565b604082019050919050565b6000611cab602f8361203e565b9150611cb682612659565b604082019050919050565b6000611cce60218361203e565b9150611cd9826126a8565b604082019050919050565b6000611cf160318361203e565b9150611cfc826126f7565b604082019050919050565b611d108161217f565b82525050565b6000611d228284611b32565b915081905092915050565b6000611d398285611b32565b9150611d458284611b32565b91508190509392505050565b6000602082019050611d666000830184611aa2565b92915050565b6000608082019050611d816000830187611aa2565b611d8e6020830186611aa2565b611d9b6040830185611d07565b8181036060830152611dad8184611ac0565b905095945050505050565b6000602082019050611dcd6000830184611ab1565b92915050565b60006020820190508181036000830152611ded8184611af9565b905092915050565b60006020820190508181036000830152611e0e81611b63565b9050919050565b60006020820190508181036000830152611e2e81611b86565b9050919050565b60006020820190508181036000830152611e4e81611ba9565b9050919050565b60006020820190508181036000830152611e6e81611bcc565b9050919050565b60006020820190508181036000830152611e8e81611bef565b9050919050565b60006020820190508181036000830152611eae81611c12565b9050919050565b60006020820190508181036000830152611ece81611c35565b9050919050565b60006020820190508181036000830152611eee81611c58565b9050919050565b60006020820190508181036000830152611f0e81611c7b565b9050919050565b60006020820190508181036000830152611f2e81611c9e565b9050919050565b60006020820190508181036000830152611f4e81611cc1565b9050919050565b60006020820190508181036000830152611f6e81611ce4565b9050919050565b6000602082019050611f8a6000830184611d07565b92915050565b6000611f9a611fab565b9050611fa682826121fd565b919050565b6000604051905090565b600067ffffffffffffffff821115611fd057611fcf612364565b5b611fd9826123a7565b9050602081019050919050565b600067ffffffffffffffff82111561200157612000612364565b5b61200a826123a7565b9050602081019050919050565b600081519050919050565b600081519050919050565b600082825260208201905092915050565b600082825260208201905092915050565b600081905092915050565b60006120658261217f565b91506120708361217f565b9250827fffffffffffffffffffffffffffffffffffffffffffffffffffffffffffffffff038211156120a5576120a46122a8565b5b828201905092915050565b60006120bb8261217f565b91506120c68361217f565b9250826120d6576120d56122d7565b5b828204905092915050565b60006120ec8261217f565b91506120f78361217f565b92508282101561210a576121096122a8565b5b828203905092915050565b60006121208261215f565b9050919050565b60008115159050919050565b60007fffffffff0000000000000000000000000000000000000000000000000000000082169050919050565b600073ffffffffffffffffffffffffffffffffffffffff82169050919050565b6000819050919050565b82818337600083830152505050565b60005b838110156121b657808201518184015260208101905061219b565b838111156121c5576000848401525b50505050565b600060028204905060018216806121e357607f821691505b602082108114156121f7576121f6612306565b5b50919050565b612206826123a7565b810181811067ffffffffffffffff8211171561222557612224612364565b5b80604052505050565b60006122398261217f565b91507fffffffffffffffffffffffffffffffffffffffffffffffffffffffffffffffff82141561226c5761226b6122a8565b5b600182019050919050565b60006122828261217f565b915061228d8361217f565b92508261229d5761229c6122d7565b5b828206905092915050565b7f4e487b7100000000000000000000000000000000000000000000000000000000600052601160045260246000fd5b7f4e487b7100000000000000000000000000000000000000000000000000000000600052601260045260246000fd5b7f4e487b7100000000000000000000000000000000000000000000000000000000600052602260045260246000fd5b7f4e487b7100000000000000000000000000000000000000000000000000000000600052603260045260246000fd5b7f4e487b7100000000000000000000000000000000000000000000000000000000600052604160045260246000fd5b600080fd5b600080fd5b600080fd5b600080fd5b6000601f19601f8301169050919050565b7f4552433732313a207472616e7366657220746f206e6f6e20455243373231526560008201527f63656976657220696d706c656d656e7465720000000000000000000000000000602082015250565b7f4552433732313a207472616e736665722066726f6d20696e636f72726563742060008201527f6f776e6572000000000000000000000000000000000000000000000000000000602082015250565b7f4552433732313a207472616e7366657220746f20746865207a65726f2061646460008201527f7265737300000000000000000000000000000000000000000000000000000000602082015250565b7f4552433732313a20617070726f766520746f2063616c6c657200000000000000600082015250565b7f4552433732313a206f70657261746f7220717565727920666f72206e6f6e657860008201527f697374656e7420746f6b656e0000000000000000000000000000000000000000602082015250565b7f4552433732313a20617070726f76652063616c6c6572206973206e6f74206f7760008201527f6e6572206e6f7220617070726f76656420666f7220616c6c0000000000000000602082015250565b7f4552433732313a2062616c616e636520717565727920666f7220746865207a6560008201527f726f206164647265737300000000000000000000000000000000000000000000602082015250565b7f4552433732313a206f776e657220717565727920666f72206e6f6e657869737460008201527f656e7420746f6b656e0000000000000000000000000000000000000000000000602082015250565b7f4552433732313a20617070726f76656420717565727920666f72206e6f6e657860008201527f697374656e7420746f6b656e0000000000000000000000000000000000000000602082015250565b7f4552433732314d657461646174613a2055524920717565727920666f72206e6f60008201527f6e6578697374656e7420746f6b656e0000000000000000000000000000000000602082015250565b7f4552433732313a20617070726f76616c20746f2063757272656e74206f776e6560008201527f7200000000000000000000000000000000000000000000000000000000000000602082015250565b7f4552433732313a207472616e736665722063616c6c6572206973206e6f74206f60008201527f776e6572206e6f7220617070726f766564000000000000000000000000000000602082015250565b61274f81612115565b811461275a57600080fd5b50565b61276681612127565b811461277157600080fd5b50565b61277d81612133565b811461278857600080fd5b50565b6127948161217f565b811461279f57600080fd5b5056fea2646970667358221220c53aec6b2fe869ce6094c229b6e4bfc0aa4d1330c1119b216558b7e4c6717b4264736f6c63430008070033",
  "immutableReferences": {},
  "source": "// SPDX-License-Identifier: MIT\npragma solidity ^0.8.7;\nimport \"@openzeppelin/contracts/token/ERC721/ERC721.sol\";\n\ncontract LiliansList is ERC721 {\n    address public owner;\n    string[] public taskNames;\n    \n    mapping(string => bool) public liliansVeryPublicWeb3ToDoList;\n   \n    // ideally make this a NFT for people to create their own todo lists lmao\n    constructor( string [] memory toDoItems) ERC721(\"LiliansList\", \"LLL\") {\n        uint i = 0;\n        \n        while(i < toDoItems.length){\n            liliansVeryPublicWeb3ToDoList[toDoItems[i]] = false;\n            taskNames.push(toDoItems[i]);\n            i++;\n        }\n    \n    }\n\n    function setToDone(string memory name) public {\n        liliansVeryPublicWeb3ToDoList[name] = true;\n    }\n\n    function setUndone(string memory name) public {\n        liliansVeryPublicWeb3ToDoList[name] = false;\n    }\n\n    function getIsDone(string memory name) public view returns (bool) {\n        return liliansVeryPublicWeb3ToDoList[name];\n    }\n\n}",
  "sourcePath": "/Users/lilian/Dev/really-expensive-to-do-list-on-web3/contracts/LiliansList.sol",
  "compiler": {
    "name": "solc",
    "version": "0.8.7+commit.e28d00a7.Emscripten.clang"
  },
  "schemaVersion": "3.3.4",
  "updatedAt": "2022-04-09T12:43:01.621Z",
  "networkType": "ethereum",
  "devdoc": {
    "kind": "dev",
    "methods": {
      "approve(address,uint256)": {
        "details": "See {IERC721-approve}."
      },
      "balanceOf(address)": {
        "details": "See {IERC721-balanceOf}."
      },
      "getApproved(uint256)": {
        "details": "See {IERC721-getApproved}."
      },
      "isApprovedForAll(address,address)": {
        "details": "See {IERC721-isApprovedForAll}."
      },
      "name()": {
        "details": "See {IERC721Metadata-name}."
      },
      "ownerOf(uint256)": {
        "details": "See {IERC721-ownerOf}."
      },
      "safeTransferFrom(address,address,uint256)": {
        "details": "See {IERC721-safeTransferFrom}."
      },
      "safeTransferFrom(address,address,uint256,bytes)": {
        "details": "See {IERC721-safeTransferFrom}."
      },
      "setApprovalForAll(address,bool)": {
        "details": "See {IERC721-setApprovalForAll}."
      },
      "supportsInterface(bytes4)": {
        "details": "See {IERC165-supportsInterface}."
      },
      "symbol()": {
        "details": "See {IERC721Metadata-symbol}."
      },
      "tokenURI(uint256)": {
        "details": "See {IERC721Metadata-tokenURI}."
      },
      "transferFrom(address,address,uint256)": {
        "details": "See {IERC721-transferFrom}."
      }
    },
    "version": 1
  },
  "userdoc": {
    "kind": "user",
    "methods": {},
    "version": 1
  }
}